{
  "_format": "hh-sol-artifact-1",
  "contractName": "HashedTimeLock",
  "sourceName": "contracts/HashedTimeLock.sol",
  "abi": [
    {
      "inputs": [],
      "name": "ECDSAInvalidSignature",
      "type": "error"
    },
    {
      "inputs": [
        {
          "internalType": "uint256",
          "name": "length",
          "type": "uint256"
        }
      ],
      "name": "ECDSAInvalidSignatureLength",
      "type": "error"
    },
    {
      "inputs": [
        {
          "internalType": "bytes32",
          "name": "s",
          "type": "bytes32"
        }
      ],
      "name": "ECDSAInvalidSignatureS",
      "type": "error"
    },
    {
      "inputs": [],
      "name": "FailedCall",
      "type": "error"
    },
    {
      "inputs": [
        {
          "internalType": "uint256",
          "name": "balance",
          "type": "uint256"
        },
        {
          "internalType": "uint256",
          "name": "needed",
          "type": "uint256"
        }
      ],
      "name": "InsufficientBalance",
      "type": "error"
    },
    {
      "inputs": [],
      "name": "InvalidInitialization",
      "type": "error"
    },
    {
      "inputs": [],
      "name": "NotInitializing",
      "type": "error"
    },
    {
      "inputs": [
        {
          "internalType": "address",
          "name": "owner",
          "type": "address"
        }
      ],
      "name": "OwnableInvalidOwner",
      "type": "error"
    },
    {
      "inputs": [
        {
          "internalType": "address",
          "name": "account",
          "type": "address"
        }
      ],
      "name": "OwnableUnauthorizedAccount",
      "type": "error"
    },
    {
      "inputs": [
        {
          "internalType": "bytes32",
          "name": "pairId",
          "type": "bytes32"
        }
      ],
      "name": "PairNotSupported",
      "type": "error"
    },
    {
      "inputs": [],
      "name": "ReentrancyGuardReentrantCall",
      "type": "error"
    },
    {
      "inputs": [
        {
          "internalType": "address",
          "name": "token",
          "type": "address"
        }
      ],
      "name": "SafeERC20FailedOperation",
      "type": "error"
    },
    {
      "inputs": [
        {
          "internalType": "address",
          "name": "token",
          "type": "address"
        }
      ],
      "name": "TokenNotSupported",
      "type": "error"
    },
    {
      "anonymous": false,
      "inputs": [
        {
          "indexed": false,
          "internalType": "uint256",
          "name": "astraPercent",
          "type": "uint256"
        },
        {
          "indexed": false,
          "internalType": "uint256",
          "name": "watcherPercent",
          "type": "uint256"
        },
        {
          "indexed": false,
          "internalType": "uint256",
          "name": "minFee",
          "type": "uint256"
        }
      ],
      "name": "FeeUpdated",
      "type": "event"
    },
    {
      "anonymous": false,
      "inputs": [
        {
          "indexed": false,
          "internalType": "uint64",
          "name": "version",
          "type": "uint64"
        }
      ],
      "name": "Initialized",
      "type": "event"
    },
    {
      "anonymous": false,
      "inputs": [
        {
          "indexed": true,
          "internalType": "bytes32",
          "name": "hashlock",
          "type": "bytes32"
        },
        {
          "indexed": false,
          "internalType": "bytes32",
          "name": "nodePubkey",
          "type": "bytes32"
        },
        {
          "indexed": true,
          "internalType": "address",
          "name": "sender",
          "type": "address"
        },
        {
          "indexed": true,
          "internalType": "address",
          "name": "receiver",
          "type": "address"
        },
        {
          "indexed": false,
          "internalType": "uint256",
          "name": "amount",
          "type": "uint256"
        },
        {
          "indexed": false,
          "internalType": "uint256",
          "name": "timelock",
          "type": "uint256"
        },
        {
          "indexed": false,
          "internalType": "bytes32",
          "name": "pairId",
          "type": "bytes32"
        }
      ],
      "name": "LogHTLCNew",
      "type": "event"
    },
    {
      "anonymous": false,
      "inputs": [
        {
          "indexed": true,
          "internalType": "bytes32",
          "name": "contractId",
          "type": "bytes32"
        }
      ],
      "name": "LogHTLCRefund",
      "type": "event"
    },
    {
      "anonymous": false,
      "inputs": [
        {
          "indexed": true,
          "internalType": "bytes32",
          "name": "contractId",
          "type": "bytes32"
        }
      ],
      "name": "LogHTLCWithdraw",
      "type": "event"
    },
    {
      "anonymous": false,
      "inputs": [
        {
          "indexed": true,
          "internalType": "address",
          "name": "from",
          "type": "address"
        },
        {
          "indexed": false,
          "internalType": "address",
          "name": "token",
          "type": "address"
        },
        {
          "indexed": false,
          "internalType": "uint256",
          "name": "_amount",
          "type": "uint256"
        }
      ],
      "name": "LogLSPDepositeFund",
      "type": "event"
    },
    {
      "anonymous": false,
      "inputs": [
        {
          "indexed": true,
          "internalType": "address",
          "name": "lspAddress",
          "type": "address"
        },
        {
          "indexed": true,
          "internalType": "bytes32",
          "name": "nodePubkey",
          "type": "bytes32"
        },
        {
          "indexed": false,
          "internalType": "string",
          "name": "name",
          "type": "string"
        }
      ],
      "name": "LogLSPRegister",
      "type": "event"
    },
    {
      "anonymous": false,
      "inputs": [
        {
          "indexed": true,
          "internalType": "address",
          "name": "to",
          "type": "address"
        },
        {
          "indexed": false,
          "internalType": "address",
          "name": "token",
          "type": "address"
        },
        {
          "indexed": false,
          "internalType": "uint256",
          "name": "_amount",
          "type": "uint256"
        }
      ],
      "name": "LogLSPWithdrawFund",
      "type": "event"
    },
    {
      "anonymous": false,
      "inputs": [
        {
          "indexed": true,
          "internalType": "bytes32",
          "name": "assetId",
          "type": "bytes32"
        },
        {
          "indexed": false,
          "internalType": "string",
          "name": "name",
          "type": "string"
        },
        {
          "indexed": false,
          "internalType": "uint8",
          "name": "decimal",
          "type": "uint8"
        }
      ],
      "name": "LogNewAsset",
      "type": "event"
    },
    {
      "anonymous": false,
      "inputs": [
        {
          "indexed": true,
          "internalType": "bytes32",
          "name": "pairId",
          "type": "bytes32"
        },
        {
          "indexed": true,
          "internalType": "address",
          "name": "token",
          "type": "address"
        },
        {
          "indexed": true,
          "internalType": "bytes32",
          "name": "assetId",
          "type": "bytes32"
        }
      ],
      "name": "LogNewPair",
      "type": "event"
    },
    {
      "anonymous": false,
      "inputs": [
        {
          "indexed": true,
          "internalType": "address",
          "name": "token",
          "type": "address"
        },
        {
          "indexed": false,
          "internalType": "string",
          "name": "name",
          "type": "string"
        },
        {
          "indexed": false,
          "internalType": "uint8",
          "name": "decimal",
          "type": "uint8"
        }
      ],
      "name": "LogNewToken",
      "type": "event"
    },
    {
      "anonymous": false,
      "inputs": [
        {
          "indexed": true,
          "internalType": "address",
          "name": "previousOwner",
          "type": "address"
        },
        {
          "indexed": true,
          "internalType": "address",
          "name": "newOwner",
          "type": "address"
        }
      ],
      "name": "OwnershipTransferred",
      "type": "event"
    },
    {
      "inputs": [
        {
          "components": [
            {
              "internalType": "bytes32",
              "name": "assetId",
              "type": "bytes32"
            },
            {
              "internalType": "string",
              "name": "name",
              "type": "string"
            },
            {
              "internalType": "uint8",
              "name": "decimal",
              "type": "uint8"
            }
          ],
          "internalType": "struct IHashedTimeLock.AssetInfo",
          "name": "_assetInfo",
          "type": "tuple"
        }
      ],
      "name": "addAssetInfo",
      "outputs": [],
      "stateMutability": "nonpayable",
      "type": "function"
    },
    {
      "inputs": [
        {
          "internalType": "address",
          "name": "_token",
          "type": "address"
        },
        {
          "internalType": "bytes32",
          "name": "_assetId",
          "type": "bytes32"
        }
      ],
      "name": "addPair",
      "outputs": [],
      "stateMutability": "nonpayable",
      "type": "function"
    },
    {
      "inputs": [
        {
          "components": [
            {
              "internalType": "address",
              "name": "token",
              "type": "address"
            },
            {
              "internalType": "string",
              "name": "name",
              "type": "string"
            },
            {
              "internalType": "uint8",
              "name": "decimal",
              "type": "uint8"
            }
          ],
          "internalType": "struct IHashedTimeLock.TokenInfo",
          "name": "_tokenInfo",
          "type": "tuple"
        }
      ],
      "name": "addTokenInfo",
      "outputs": [],
      "stateMutability": "nonpayable",
      "type": "function"
    },
    {
      "inputs": [],
      "name": "astraReceiver",
      "outputs": [
        {
          "internalType": "address payable",
          "name": "",
          "type": "address"
        }
      ],
      "stateMutability": "view",
      "type": "function"
    },
    {
      "inputs": [
        {
          "internalType": "bytes32",
          "name": "_hashlock",
          "type": "bytes32"
        },
        {
          "internalType": "bytes32",
          "name": "_nodePubkey",
          "type": "bytes32"
        },
        {
          "internalType": "address payable",
          "name": "_from",
          "type": "address"
        },
        {
          "internalType": "address payable",
          "name": "_to",
          "type": "address"
        },
        {
          "internalType": "bytes32",
          "name": "_pairId",
          "type": "bytes32"
        },
        {
          "internalType": "uint256",
          "name": "_amount",
          "type": "uint256"
        },
        {
          "internalType": "uint256",
          "name": "_timelock",
          "type": "uint256"
        },
        {
          "internalType": "uint256",
          "name": "_fee",
          "type": "uint256"
        },
        {
          "internalType": "bool",
          "name": "_toLightning",
          "type": "bool"
        },
        {
          "internalType": "bytes",
          "name": "_signature",
          "type": "bytes"
        }
      ],
      "name": "deposit",
      "outputs": [],
      "stateMutability": "payable",
      "type": "function"
    },
    {
      "inputs": [
        {
          "internalType": "address",
          "name": "_to",
          "type": "address"
        },
        {
          "internalType": "address",
          "name": "_token",
          "type": "address"
        },
        {
          "internalType": "uint256",
          "name": "_amount",
          "type": "uint256"
        }
      ],
      "name": "depositLspFund",
      "outputs": [],
      "stateMutability": "nonpayable",
      "type": "function"
    },
    {
      "inputs": [
        {
          "internalType": "bytes32",
          "name": "_assetId",
          "type": "bytes32"
        }
      ],
      "name": "getAssetInfo",
      "outputs": [
        {
          "components": [
            {
              "internalType": "bytes32",
              "name": "assetId",
              "type": "bytes32"
            },
            {
              "internalType": "string",
              "name": "name",
              "type": "string"
            },
            {
              "internalType": "uint8",
              "name": "decimal",
              "type": "uint8"
            }
          ],
          "internalType": "struct IHashedTimeLock.AssetInfo",
          "name": "asset",
          "type": "tuple"
        }
      ],
      "stateMutability": "view",
      "type": "function"
    },
    {
      "inputs": [
        {
          "internalType": "uint256",
          "name": "_index",
          "type": "uint256"
        }
      ],
      "name": "getContractByIndex",
      "outputs": [
        {
          "components": [
            {
              "internalType": "bytes32",
              "name": "hashlock",
              "type": "bytes32"
            },
            {
              "internalType": "address payable",
              "name": "sender",
              "type": "address"
            },
            {
              "internalType": "address payable",
              "name": "receiver",
              "type": "address"
            },
            {
              "internalType": "address payable",
              "name": "watcher",
              "type": "address"
            },
            {
              "internalType": "bytes32",
              "name": "pairId",
              "type": "bytes32"
            },
            {
              "internalType": "uint256",
              "name": "amount",
              "type": "uint256"
            },
            {
              "internalType": "uint256",
              "name": "fee",
              "type": "uint256"
            },
            {
              "internalType": "uint256",
              "name": "createTime",
              "type": "uint256"
            },
            {
              "internalType": "uint256",
              "name": "timelock",
              "type": "uint256"
            },
            {
              "internalType": "bool",
              "name": "toLightning",
              "type": "bool"
            },
            {
              "internalType": "bytes32",
              "name": "preimage",
              "type": "bytes32"
            },
            {
              "internalType": "bytes32",
              "name": "nodePubkey",
              "type": "bytes32"
            },
            {
              "internalType": "uint8",
              "name": "status",
              "type": "uint8"
            }
          ],
          "internalType": "struct IHashedTimeLock.HtlcContract",
          "name": "htlc",
          "type": "tuple"
        }
      ],
      "stateMutability": "view",
      "type": "function"
    },
    {
      "inputs": [
        {
          "internalType": "bytes32",
          "name": "_contractId",
          "type": "bytes32"
        }
      ],
      "name": "getContractByKey",
      "outputs": [
        {
          "components": [
            {
              "internalType": "bytes32",
              "name": "hashlock",
              "type": "bytes32"
            },
            {
              "internalType": "address payable",
              "name": "sender",
              "type": "address"
            },
            {
              "internalType": "address payable",
              "name": "receiver",
              "type": "address"
            },
            {
              "internalType": "address payable",
              "name": "watcher",
              "type": "address"
            },
            {
              "internalType": "bytes32",
              "name": "pairId",
              "type": "bytes32"
            },
            {
              "internalType": "uint256",
              "name": "amount",
              "type": "uint256"
            },
            {
              "internalType": "uint256",
              "name": "fee",
              "type": "uint256"
            },
            {
              "internalType": "uint256",
              "name": "createTime",
              "type": "uint256"
            },
            {
              "internalType": "uint256",
              "name": "timelock",
              "type": "uint256"
            },
            {
              "internalType": "bool",
              "name": "toLightning",
              "type": "bool"
            },
            {
              "internalType": "bytes32",
              "name": "preimage",
              "type": "bytes32"
            },
            {
              "internalType": "bytes32",
              "name": "nodePubkey",
              "type": "bytes32"
            },
            {
              "internalType": "uint8",
              "name": "status",
              "type": "uint8"
            }
          ],
          "internalType": "struct IHashedTimeLock.HtlcContract",
          "name": "htlc",
          "type": "tuple"
        }
      ],
      "stateMutability": "view",
      "type": "function"
    },
    {
      "inputs": [],
      "name": "getContractSize",
      "outputs": [
        {
          "internalType": "uint256",
          "name": "",
          "type": "uint256"
        }
      ],
      "stateMutability": "view",
      "type": "function"
    },
    {
      "inputs": [
        {
          "internalType": "address",
          "name": "_lspAddress",
          "type": "address"
        },
        {
          "internalType": "address",
          "name": "_token",
          "type": "address"
        }
      ],
      "name": "getLspBalance",
      "outputs": [
        {
          "internalType": "uint256",
          "name": "balance",
          "type": "uint256"
        }
      ],
      "stateMutability": "view",
      "type": "function"
    },
    {
      "inputs": [
        {
          "internalType": "address",
          "name": "_lspAddress",
          "type": "address"
        }
      ],
      "name": "getLspByAddr",
      "outputs": [
        {
          "components": [
            {
              "internalType": "string",
              "name": "name",
              "type": "string"
            },
            {
              "internalType": "bytes32",
              "name": "nodePubkey",
              "type": "bytes32"
            },
            {
              "internalType": "address",
              "name": "lspAddress",
              "type": "address"
            },
            {
              "internalType": "string",
              "name": "url",
              "type": "string"
            }
          ],
          "internalType": "struct IHashedTimeLock.LspInfo",
          "name": "lsp",
          "type": "tuple"
        }
      ],
      "stateMutability": "view",
      "type": "function"
    },
    {
      "inputs": [
        {
          "internalType": "uint256",
          "name": "_index",
          "type": "uint256"
        }
      ],
      "name": "getLspByIndex",
      "outputs": [
        {
          "components": [
            {
              "internalType": "string",
              "name": "name",
              "type": "string"
            },
            {
              "internalType": "bytes32",
              "name": "nodePubkey",
              "type": "bytes32"
            },
            {
              "internalType": "address",
              "name": "lspAddress",
              "type": "address"
            },
            {
              "internalType": "string",
              "name": "url",
              "type": "string"
            }
          ],
          "internalType": "struct IHashedTimeLock.LspInfo",
          "name": "lsp",
          "type": "tuple"
        }
      ],
      "stateMutability": "view",
      "type": "function"
    },
    {
      "inputs": [],
      "name": "getLspCount",
      "outputs": [
        {
          "internalType": "uint256",
          "name": "",
          "type": "uint256"
        }
      ],
      "stateMutability": "view",
      "type": "function"
    },
    {
      "inputs": [
        {
          "internalType": "uint256",
          "name": "_index",
          "type": "uint256"
        }
      ],
      "name": "getPairByIndex",
      "outputs": [
        {
          "components": [
            {
              "internalType": "bytes32",
              "name": "id",
              "type": "bytes32"
            },
            {
              "components": [
                {
                  "internalType": "address",
                  "name": "token",
                  "type": "address"
                },
                {
                  "internalType": "string",
                  "name": "name",
                  "type": "string"
                },
                {
                  "internalType": "uint8",
                  "name": "decimal",
                  "type": "uint8"
                }
              ],
              "internalType": "struct IHashedTimeLock.TokenInfo",
              "name": "token",
              "type": "tuple"
            },
            {
              "components": [
                {
                  "internalType": "bytes32",
                  "name": "assetId",
                  "type": "bytes32"
                },
                {
                  "internalType": "string",
                  "name": "name",
                  "type": "string"
                },
                {
                  "internalType": "uint8",
                  "name": "decimal",
                  "type": "uint8"
                }
              ],
              "internalType": "struct IHashedTimeLock.AssetInfo",
              "name": "asset",
              "type": "tuple"
            }
          ],
          "internalType": "struct IHashedTimeLock.Pair",
          "name": "pair",
          "type": "tuple"
        }
      ],
      "stateMutability": "view",
      "type": "function"
    },
    {
      "inputs": [
        {
          "internalType": "bytes32",
          "name": "_key",
          "type": "bytes32"
        }
      ],
      "name": "getPairByKey",
      "outputs": [
        {
          "components": [
            {
              "internalType": "bytes32",
              "name": "id",
              "type": "bytes32"
            },
            {
              "components": [
                {
                  "internalType": "address",
                  "name": "token",
                  "type": "address"
                },
                {
                  "internalType": "string",
                  "name": "name",
                  "type": "string"
                },
                {
                  "internalType": "uint8",
                  "name": "decimal",
                  "type": "uint8"
                }
              ],
              "internalType": "struct IHashedTimeLock.TokenInfo",
              "name": "token",
              "type": "tuple"
            },
            {
              "components": [
                {
                  "internalType": "bytes32",
                  "name": "assetId",
                  "type": "bytes32"
                },
                {
                  "internalType": "string",
                  "name": "name",
                  "type": "string"
                },
                {
                  "internalType": "uint8",
                  "name": "decimal",
                  "type": "uint8"
                }
              ],
              "internalType": "struct IHashedTimeLock.AssetInfo",
              "name": "asset",
              "type": "tuple"
            }
          ],
          "internalType": "struct IHashedTimeLock.Pair",
          "name": "pair",
          "type": "tuple"
        }
      ],
      "stateMutability": "view",
      "type": "function"
    },
    {
      "inputs": [],
      "name": "getPairCount",
      "outputs": [
        {
          "internalType": "uint256",
          "name": "",
          "type": "uint256"
        }
      ],
      "stateMutability": "view",
      "type": "function"
    },
    {
      "inputs": [
        {
          "internalType": "address",
          "name": "_token",
          "type": "address"
        }
      ],
      "name": "getTokenInfo",
      "outputs": [
        {
          "components": [
            {
              "internalType": "address",
              "name": "token",
              "type": "address"
            },
            {
              "internalType": "string",
              "name": "name",
              "type": "string"
            },
            {
              "internalType": "uint8",
              "name": "decimal",
              "type": "uint8"
            }
          ],
          "internalType": "struct IHashedTimeLock.TokenInfo",
          "name": "token",
          "type": "tuple"
        }
      ],
      "stateMutability": "view",
      "type": "function"
    },
    {
      "inputs": [
        {
          "internalType": "address",
          "name": "_owner",
          "type": "address"
        },
        {
          "internalType": "address payable",
          "name": "_receiver",
          "type": "address"
        }
      ],
      "name": "initialize",
      "outputs": [],
      "stateMutability": "nonpayable",
      "type": "function"
    },
    {
      "inputs": [],
      "name": "maxLockDelta",
      "outputs": [
        {
          "internalType": "uint256",
          "name": "",
          "type": "uint256"
        }
      ],
      "stateMutability": "view",
      "type": "function"
    },
    {
      "inputs": [],
      "name": "minFee",
      "outputs": [
        {
          "internalType": "uint256",
          "name": "",
          "type": "uint256"
        }
      ],
      "stateMutability": "view",
      "type": "function"
    },
    {
      "inputs": [],
      "name": "minLockDelta",
      "outputs": [
        {
          "internalType": "uint256",
          "name": "",
          "type": "uint256"
        }
      ],
      "stateMutability": "view",
      "type": "function"
    },
    {
      "inputs": [],
      "name": "owner",
      "outputs": [
        {
          "internalType": "address",
          "name": "",
          "type": "address"
        }
      ],
      "stateMutability": "view",
      "type": "function"
    },
    {
      "inputs": [
        {
          "internalType": "bytes32",
          "name": "_contractId",
          "type": "bytes32"
        }
      ],
      "name": "refund",
      "outputs": [],
      "stateMutability": "nonpayable",
      "type": "function"
    },
    {
      "inputs": [
        {
          "internalType": "address",
          "name": "_address",
          "type": "address"
        },
        {
          "internalType": "string",
          "name": "_name",
          "type": "string"
        },
        {
          "internalType": "bytes32",
          "name": "_nodePubkey",
          "type": "bytes32"
        },
        {
          "internalType": "string",
          "name": "_url",
          "type": "string"
        }
      ],
      "name": "registerLsp",
      "outputs": [],
      "stateMutability": "nonpayable",
      "type": "function"
    },
    {
      "inputs": [],
      "name": "renounceOwnership",
      "outputs": [],
      "stateMutability": "nonpayable",
      "type": "function"
    },
    {
      "inputs": [
        {
          "internalType": "address",
          "name": "_receiver",
          "type": "address"
        }
      ],
      "name": "setAstraReceiver",
      "outputs": [],
      "stateMutability": "nonpayable",
      "type": "function"
    },
    {
      "inputs": [
        {
          "internalType": "uint256",
          "name": "_astraPercent",
          "type": "uint256"
        },
        {
          "internalType": "uint256",
          "name": "_watchPercent",
          "type": "uint256"
        },
        {
          "internalType": "uint256",
          "name": "_minFee",
          "type": "uint256"
        },
        {
          "internalType": "uint256",
          "name": "_minDelta",
          "type": "uint256"
        },
        {
          "internalType": "uint256",
          "name": "_maxDelta",
          "type": "uint256"
        }
      ],
      "name": "setupFee",
      "outputs": [],
      "stateMutability": "nonpayable",
      "type": "function"
    },
    {
      "inputs": [
        {
          "internalType": "address",
          "name": "newOwner",
          "type": "address"
        }
      ],
      "name": "transferOwnership",
      "outputs": [],
      "stateMutability": "nonpayable",
      "type": "function"
    },
    {
      "inputs": [
        {
          "internalType": "bytes32",
          "name": "_hashLock",
          "type": "bytes32"
        },
        {
          "internalType": "address",
          "name": "_from",
          "type": "address"
        },
        {
          "internalType": "uint256",
          "name": "_chainId",
          "type": "uint256"
        },
        {
          "internalType": "bytes32",
          "name": "_pairId",
          "type": "bytes32"
        },
        {
          "internalType": "uint256",
          "name": "_amount",
          "type": "uint256"
        },
        {
          "internalType": "uint256",
          "name": "_fee",
          "type": "uint256"
        },
        {
          "internalType": "bytes",
          "name": "_signature",
          "type": "bytes"
        }
      ],
      "name": "verifySignature",
      "outputs": [
        {
          "internalType": "bool",
          "name": "",
          "type": "bool"
        }
      ],
      "stateMutability": "pure",
      "type": "function"
    },
    {
      "inputs": [
        {
          "internalType": "bytes32",
          "name": "_preimage",
          "type": "bytes32"
        }
      ],
      "name": "withdraw",
      "outputs": [],
      "stateMutability": "nonpayable",
      "type": "function"
    },
    {
      "inputs": [
        {
          "internalType": "address",
          "name": "_token",
          "type": "address"
        },
        {
          "internalType": "address",
          "name": "_to",
          "type": "address"
        },
        {
          "internalType": "uint256",
          "name": "_amount",
          "type": "uint256"
        }
      ],
      "name": "withdrawLspFund",
      "outputs": [],
      "stateMutability": "nonpayable",
      "type": "function"
    }
  ],
  "bytecode": "0x608080604052346015576134f9908161001b8239f35b600080fdfe6080604052600436101561001257600080fd5b60003560e01c80630264a101146128e85780631b746261146128255780631f69565f146127ce5780631fe7c0bd146127b05780632436a6d81461279257806324ec75901461277457806328587a17146127345780632bfc66e71461267857806338e7abaa1461231557806343fea776146122bd57806345e09c861461229f578063485cc9551461201857806364c2a59014611fcb5780636e26276114611ed2578063715018a614611e395780637249fbb614611bce5780638da5cb5b14611b885780638e19899e146118f55780639cf2ebf5146118d7578063a7c32b98146117d6578063a8473d1e14611581578063afefe583146111a5578063bbdbbe4014611143578063bd61a8a514610ba1578063d0fd49a014610b83578063d2030313146109f2578063d41a37ed146109cb578063d62a34f21461090e578063e13decf3146107e9578063e52aa465146101f9578063f2fde38b146101ce5763fefaad5d1461017c57600080fd5b346101c95760206003193601126101c957610195612cd8565b5060043560005260066020526101c56101b16040600020612e3f565b604051918291602083526020830190612a3e565b0390f35b600080fd5b346101c95760206003193601126101c9576101f76101ea61295a565b6101f2613088565b612f6a565b005b6101406003193601126101c9576044356001600160a01b0381166004356024358284036101c957606435936001600160a01b0385168095036101c9576084359160a4359260c4359560e435936101043590811515928383036101c9576101243567ffffffffffffffff81116101c957610276903690600401612b37565b9185600052600f6020526001600160a01b0360016040600020015416156107bb5789600052600a60205260ff600c6040600020015416610777578734036107335760025488106106c9576000548b1061065f576001548b116105f657921561058f5750505085836102e933995b42612cb5565b9584600052600f6020526001600160a01b0380600160406000200154169a16998a600052600d60205260406000206001600160a01b0382166000526020526040600020548981101560001461054e57508a600052600d6020526001600160a01b03604060002091166000526020526040600020610367898254612ebe565b90555b6040519361037785612aa3565b838552878c60208701938d8552604088019182528b606089016000815260808a01908b825260a08b0192835260c08b0193845260e08b01944286526101008c019687526101208c019788526101408c019860008a526101608d019a8b526101808d019b60018d52600052600a60205260406000209c518d55516001600160a01b031660018d01906001600160a01b031681546001600160a01b031916179055516001600160a01b031660028c01906001600160a01b031681546001600160a01b031916179055516001600160a01b031660038b01906001600160a01b031681546001600160a01b0319161790555160048a01555160058901555160068801555160078701555160088601556009850190511515815460ff19169060ff1617905551600a84015551600b8301555160ff1690600c019060ff16815460ff1916179055600b549268010000000000000000841015610538577f27308cc891acfabc4b25657d3e0b1d4c96fe0677ec484900909df41fe28da967948661051e61050787600160809901600b55600b612c3c565b81939154906000199060031b92831b921b19161790565b9055604051938452602084015260408301526060820152a4005b634e487b7160e01b600052604160045260246000fd5b9061055c61058a928b612ebe565b908c600052600d60205260406000206001600160a01b038216600052602052600060408120558c3091613029565b61036a565b908688866105a2949c959c46908d612ecb565b156105b257836102e988926102e3565b606460405162461bcd60e51b815260206004820152601760248201527f7369676e617475726520766572696679206661696c65640000000000000000006044820152fd5b608460405162461bcd60e51b8152602060048201526024808201527f74696d656c6f636b20697320626967676572207468616e206d61784c6f636b4460448201527f656c7461000000000000000000000000000000000000000000000000000000006064820152fd5b608460405162461bcd60e51b815260206004820152602260248201527f74696d656c6f636b206973206c657373207468616e206d696e4c6f636b44656c60448201527f74610000000000000000000000000000000000000000000000000000000000006064820152fd5b608460405162461bcd60e51b815260206004820152602360248201527f466565206973206c657373207468616e20746865206d696e696d756d20616d6f60448201527f756e7400000000000000000000000000000000000000000000000000000000006064820152fd5b606460405162461bcd60e51b815260206004820152601360248201527f46656520616d6f756e742069732077726f6e67000000000000000000000000006044820152fd5b606460405162461bcd60e51b815260206004820152601660248201527f686173684c6f636b20657869737420616c7265616479000000000000000000006044820152fd5b857f456e69760000000000000000000000000000000000000000000000000000000060005260045260246000fd5b346101c9576107f736612986565b33600052600c6020526108136001604060002001541515612c6a565b33600052600d60205260406000206001600160a01b03841660005260205280604060002054106108ca57816108c5826108786001600160a01b03947f78cc2a539f3f253a56a52cdf94ea831d45a9a993d654d312c85308a659bbe00e9686891661320c565b33600052600d6020526040600020848716600052602052604060002061089f828254612ebe565b9055604051938493169583602090939291936001600160a01b0360408201951681520152565b0390a2005b606460405162461bcd60e51b815260206004820152601b60248201527f6e6f20656e6f75676820746f6b656e20746f20776974686472617700000000006044820152fd5b346101c95760206003193601126101c9576101c560043561092d612e11565b9080600052600f602052600260406000200154610952575b5060405191829182612a61565b809150600052600f6020526001600160a01b036001604060002001541660005260086020526109c0604060002082600052600f60205260026040600020015460005260066020526109b6604060002091604051946109af86612ac0565b8552612dd6565b6020840152612e3f565b604082015282610945565b346101c95760006003193601126101c95760206001600160a01b0360055416604051908152f35b346101c95760206003193601126101c957610a0b612bdc565b50600435600052600a6020526101c5604060002060ff600c60405192610a3084612aa3565b805484526001600160a01b0360018201541660208501526001600160a01b0360028201541660408501526001600160a01b03600382015416606085015260048101546080850152600581015460a0850152600681015460c0850152600781015460e08501526008810154610100850152826009820154161515610120850152600a810154610140850152600b8101546101608501520154166101808201526040519182918291909161018060ff816101a0840195805185526001600160a01b0360208201511660208601526001600160a01b0360408201511660408601526001600160a01b0360608201511660608601526080810151608086015260a081015160a086015260c081015160c086015260e081015160e08601526101008101516101008601526101208101511515610120860152610140810151610140860152610160810151610160860152015116910152565b346101c95760006003193601126101c9576020600e54604051908152f35b346101c95760806003193601126101c957610bba61295a565b60243567ffffffffffffffff81116101c957610bda903690600401612b37565b906044359160643567ffffffffffffffff81116101c957610c076001600160a01b03913690600401612b37565b92610c10613088565b169182600052600c6020526001604060002001546110ff578151156110bb57600a82511161107757805115611033576040815111610fef578215610fab578315610f6757604051610c6081612adc565b8281526020810185815260408201908582526060830193845285600052600c6020526040600020925180519067ffffffffffffffff821161053857610ca58554612cf8565b601f8111610f1f575b50602090601f8311600114610eac5791806001600160a01b0394926003979694600092610ea1575b50506000198260011b92881b1c19161784555b51600184015551166001600160a01b036002830191166001600160a01b031982541617905501905180519067ffffffffffffffff8211610538578190610d2f8454612cf8565b601f8111610e4e575b50602090601f8311600114610deb57600092610de0575b50506000198260011b9260031b1c19161790555b600e5468010000000000000000811015610538577f86ace8151bd37fe43a4d85330ea8fdd18e9dc08e111673e49122015ee4c80a2391610dae826001610ddb9401600e55600e612c3c565b81549060031b906001600160a01b0387831b921b19161790556040519182916020835260208301906129e3565b0390a3005b015190508680610d4f565b600085815282812093601f1916905b818110610e365750908460019594939210610e1d575b505050811b019055610d63565b015160001960f88460031b161c19169055868080610e10565b92936020600181928786015181550195019301610dfa565b909150836000526020600020601f840160051c81019160208510610e97575b90601f859493920160051c01905b818110610e885750610d38565b60008155849350600101610e7b565b9091508190610e6d565b015190508b80610cd6565b90601f1983169186600052816000209260005b818110610f07575092600192859260039998966001600160a01b03989610610eef575b505050811b018455610ce9565b015160001960f8848b1b161c191690558b8080610ee2565b92936020600181928786015181550195019301610ebf565b856000526020600020601f840160051c81019160208510610f5d575b601f0160051c01905b818110610f515750610cae565b60008155600101610f44565b9091508190610f3b565b606460405162461bcd60e51b815260206004820152601f60248201527f4c7370204e6f6465205075626b65792063616e6e6f7420626520656d707479006044820152fd5b606460405162461bcd60e51b815260206004820152601760248201527f4c737020616464726573732063616e6e6f7420626520300000000000000000006044820152fd5b606460405162461bcd60e51b815260206004820152601060248201527f4c73702055726c20746f6f206c6f6e67000000000000000000000000000000006044820152fd5b606460405162461bcd60e51b815260206004820152601760248201527f4c73702055726c2063616e6e6f7420626520656d7074790000000000000000006044820152fd5b606460405162461bcd60e51b815260206004820152601160248201527f4c7370204e616d6520746f6f206c6f6e670000000000000000000000000000006044820152fd5b606460405162461bcd60e51b815260206004820152601860248201527f4c7370204e616d652063616e6e6f7420626520656d70747900000000000000006044820152fd5b606460405162461bcd60e51b815260206004820152601260248201527f4c535020616c72656164792065786973747300000000000000000000000000006044820152fd5b346101c95760e06003193601126101c95761115c612970565b60c43567ffffffffffffffff81116101c95760209161118261119b923690600401612b37565b9060a43590608435906064359060443590600435612ecb565b6040519015158152f35b346101c95760206003193601126101c95760043567ffffffffffffffff81116101c957606060031982360301126101c9576040516111e281612ac0565b81600401356001600160a01b03811681036101c9578152602482013567ffffffffffffffff81116101c95760446112226112309260043691870101612b37565b936020840194855201612b7c565b6040820190815261123f613088565b8251511561153d576001600160a01b03825116156114f9576020835151116114b5576001600160a01b0382511660005260086020526001600160a01b0360406000205416611471576001600160a01b03825116600052600860205260406000206001600160a01b0380845116166001600160a01b031982541617815560018101845180519067ffffffffffffffff82116105385781906112df8454612cf8565b601f811161141e575b50602090601f83116001146113bb576000926113b0575b50506000198260011b9260031b1c19161790555b60ff6002818451169201911660ff198254161790556001600160a01b0382511660095468010000000000000000811015610538577fa0aa210b3fb40e8092895d4893ef3c0b9d7d11ebce3da264a80461438af02bfa9360ff926113868360016001600160a01b0395016009556009612c3c565b84829392549160031b92831b921b191617905551169351915116906108c560405192839283612e64565b0151905087806112ff565b600085815282812093601f1916905b81811061140657509084600195949392106113ed575b505050811b019055611313565b015160001960f88460031b161c191690558780806113e0565b929360206001819287860151815501950193016113ca565b909150836000526020600020601f840160051c81019160208510611467575b90601f859493920160051c01905b81811061145857506112e8565b6000815584935060010161144b565b909150819061143d565b606460405162461bcd60e51b815260206004820152601460248201527f746f6b656e20616c7265616479206578697374730000000000000000000000006044820152fd5b606460405162461bcd60e51b815260206004820152601360248201527f746f6b656e206e616d6520746f6f206c6f6e67000000000000000000000000006044820152fd5b606460405162461bcd60e51b815260206004820152601c60248201527f546f6b656e20616464726573732063616e6e6f74206265207a65726f000000006044820152fd5b606460405162461bcd60e51b815260206004820152601a60248201527f546f6b656e206e616d652063616e6e6f7420626520656d7074790000000000006044820152fd5b346101c95760406003193601126101c95761159a61295a565b602435906115a6613088565b81600052600660205260406000205415611792576001600160a01b038116908160005260086020526001600160a01b03604060002054161561174e57600061162b6020926040516bffffffffffffffffffffffff198582019260601b1682528660348201526034815261161a605482612af8565b6040519283928392519283916129c0565b8101039060025afa156117425760008051600f6020526040909120600201546116fe5760405161165a81612ac0565b8181526002602082018481526001600160a01b03604084019187835285600052600f60205260406000209451855551166001600160a01b036001850191166001600160a01b03198254161790555191015560105468010000000000000000811015610538576116d56105078260018594016010556010612c3c565b90557fcad09b492e580d6c443ef90f0cff60a7517c6b68149412df8a3736020c0905d4600080a4005b606460405162461bcd60e51b815260206004820152601460248201527f706169727320616c7265616479206578697374730000000000000000000000006044820152fd5b6040513d6000823e3d90fd5b606460405162461bcd60e51b815260206004820152601360248201527f746f6b656e206e6f7420737570706f72746564000000000000000000000000006044820152fd5b606460405162461bcd60e51b815260206004820152601360248201527f6173736574206e6f7420737570706f72746564000000000000000000000000006044820152fd5b346101c95760206003193601126101c9576004356117f2612e85565b50600e5481101561189257600090600e5481101561187e57602082600e6001600160a01b03945220015416600052600c6020526101c5604060002061186d60036040519261183f84612adc565b61184881612d32565b8452600181015460208501526001600160a01b03600282015416604085015201612d32565b606082015260405191829182612b8a565b602482634e487b7160e01b81526032600452fd5b60405162461bcd60e51b815260206004820152601260248201527f696e646578206f7574206f662072616e676500000000000000000000000000006044820152606490fd5b346101c95760006003193601126101c9576020601054604051908152f35b346101c95760206003193601126101c9576004356119116130e9565b602060006119306040518381019085825284815261161a604082612af8565b8101039060025afa15611742576000519081600052600a602052600160ff600c604060002001541603611b4457600c9082600052600a602052604060002090600282016001600160a01b0381541660ff60098501541615611b30575b6119e8906119e2600686016119dd670de0b6b3a76400006119b1835460045490612eab565b0480611b21575b670de0b6b3a76400006119cf845460035490612eab565b049283611b07575b54612ebe565b612ebe565b90613162565b80546001600160a01b031660008181526020869052604090206001015415611ad257506001600160a01b036005840154915416600052600d60205260406000206004840154600052600f6020526001600160a01b03806001604060002001541616600052602052611a5f6040600020918254612cb5565b90555b600a8201556003810180546001600160a01b0319163317905501805460ff191660021790557fd6fd4c8e45bf0c70693141c7ce46451b6a6a28ac8386fca2ba914044e0e23916600080a260017f9b779b17422d0df92223018b32b4d1fa46e071723d6817e2486d003becc55f0055005b611b0291506004840154600052600f6020526001600160a01b03600160406000200154169060058501549161320c565b611a62565b611b1c846001600160a01b0360055416613162565b6119d7565b611b2b8133613162565b6119b8565b5060018301546001600160a01b031661198c565b606460405162461bcd60e51b815260206004820152601260248201527f756e61626c6520746f20776974686472617700000000000000000000000000006044820152fd5b346101c95760006003193601126101c95760206001600160a01b037f9016d09d72d40fdae2fd8ceac6b6234c7706214fd39c1cd1e609a0528c1993005416604051908152f35b346101c95760206003193601126101c95760043580600052600a602052600160ff600c604060002001541603611df55780600052600a6020526008604060002001544210611db157611c1e6130e9565b80600052600a60205260036040600020600181016001600160a01b0381541660ff60098401541615611d9d575b611c7a906119e260068501670de0b6b3a7640000611c6d825460045490612eab565b049081611d935754612ebe565b80546001600160a01b03166000818152600c602052604090206001015415611d5e57506001600160a01b036005830154915416600052600d60205260406000206004830154600052600f6020526001600160a01b03806001604060002001541616600052602052611cf16040600020918254612cb5565b90555b600c8101805460ff1916831790550180546001600160a01b031916331790557f989b3a845197c9aec15f8982bbb30b5da714050e662a7a287bb1a94c81e2e70e600080a260017f9b779b17422d0df92223018b32b4d1fa46e071723d6817e2486d003becc55f0055005b611d8e91506004830154600052600f6020526001600160a01b03600160406000200154169060058401549161320c565b611cf4565b611b1c8233613162565b5060028201546001600160a01b0316611c4b565b606460405162461bcd60e51b815260206004820152601760248201527f74696d656c6f636b206e6f7420796574207061737365640000000000000000006044820152fd5b606460405162461bcd60e51b815260206004820152601060248201527f756e61626c6520746f20726566756e64000000000000000000000000000000006044820152fd5b346101c95760006003193601126101c957611e52613088565b60006001600160a01b037f9016d09d72d40fdae2fd8ceac6b6234c7706214fd39c1cd1e609a0528c199300546001600160a01b031981167f9016d09d72d40fdae2fd8ceac6b6234c7706214fd39c1cd1e609a0528c19930055167f8be0079c531659141344cd1fd0a4f28419497f9722a3daafe3b4186f6b6457e08280a3005b346101c95760a06003193601126101c957608435606435600435604435602435611efa613088565b670de0b6b3a7640000611f0d8483612cb5565b1015611f87577f509d432c4ab40e3eb039ee95fea93be8de6c751efa87aed5e51c7202b0dd8e0994606094846003558260045583600255603c8111600014611f7f575b60005562015180811015611f7a5750620151805b60015560405192835260208301526040820152a1005b611f64565b50603c611f50565b606460405162461bcd60e51b815260206004820152601160248201527f77726f6e67206665652073657474696e670000000000000000000000000000006044820152fd5b346101c95760206003193601126101c9576001600160a01b03611fec61295a565b611ff4612e85565b5016600052600c6020526101c5604060002061186d60036040519261183f84612adc565b346101c95760406003193601126101c95761203161295a565b612039612970565b907ff0c57e16840df040f15088dc2f81fe391c3923bec73e23a9662efc9c229c6a00549160ff8360401c16159267ffffffffffffffff811680159081612297575b600114908161228d575b159081612284575b5061225a576001600160a01b0392818560017fffffffffffffffffffffffffffffffffffffffffffffffff00000000000000006120fd9516177ff0c57e16840df040f15088dc2f81fe391c3923bec73e23a9662efc9c229c6a0055612205575b506120f56132d2565b6101f26132d2565b6121056132d2565b61210d6132d2565b60017f9b779b17422d0df92223018b32b4d1fa46e071723d6817e2486d003becc55f0055166001600160a01b0319600554161760055567016345785d8a00006003556702c68af0bb1400006004556000600255603c6000556201518060015561217257005b7fffffffffffffffffffffffffffffffffffffffffffffff00ffffffffffffffff7ff0c57e16840df040f15088dc2f81fe391c3923bec73e23a9662efc9c229c6a0054167ff0c57e16840df040f15088dc2f81fe391c3923bec73e23a9662efc9c229c6a00557fc7f505b2f371ae2175ee4913f4499e1f2633a7b5936321eed1cdaeb6115181d2602060405160018152a1005b7fffffffffffffffffffffffffffffffffffffffffffffff0000000000000000001668010000000000000001177ff0c57e16840df040f15088dc2f81fe391c3923bec73e23a9662efc9c229c6a0055856120ec565b7ff92ee8a90000000000000000000000000000000000000000000000000000000060005260046000fd5b9050158561208c565b303b159150612084565b85915061207a565b346101c95760006003193601126101c9576020600b54604051908152f35b346101c95760406003193601126101c9576122d661295a565b6001600160a01b036122e6612970565b9116600052600d6020526001600160a01b03604060002091166000526020526020604060002054604051908152f35b346101c95760206003193601126101c95760043567ffffffffffffffff81116101c957606060031982360301126101c95760405161235281612ac0565b81600401358152602482013567ffffffffffffffff81116101c95760446112226123829260043691870101612b37565b60408201908152612391613088565b81511561263457815160005260066020526040600020546125f057825151156125ac57601483515111612568578151600052600660205260406000208251815560018101845180519067ffffffffffffffff82116105385781906123f58454612cf8565b601f8111612515575b50602090601f83116001146124b2576000926124a7575b50506000198260011b9260031b1c19161790555b60ff6002818451169201911660ff198254161790558151916007549068010000000000000000821015610538577fdde82c037c21b64dc750482505fa019b9c24ab79469ef308988a4e3a98d5edf69361248f61050784600160ff96016007556007612c3c565b9055519351915116906108c560405192839283612e64565b015190508780612415565b600085815282812093601f1916905b8181106124fd57509084600195949392106124e4575b505050811b019055612429565b015160001960f88460031b161c191690558780806124d7565b929360206001819287860151815501950193016124c1565b909150836000526020600020601f840160051c8101916020851061255e575b90601f859493920160051c01905b81811061254f57506123fe565b60008155849350600101612542565b9091508190612534565b606460405162461bcd60e51b815260206004820152601360248201527f4173736574206e616d6520746f6f206c6f6e67000000000000000000000000006044820152fd5b606460405162461bcd60e51b815260206004820152601360248201527f4173736574206e616d6520697320656d707479000000000000000000000000006044820152fd5b606460405162461bcd60e51b815260206004820152601460248201527f417373657420616c7265616479206578697374730000000000000000000000006044820152fd5b606460405162461bcd60e51b815260206004820152601660248201527f417373657449642063616e6e6f74206265207a65726f000000000000000000006044820152fd5b346101c95760206003193601126101c957600435612694612e11565b506010548110156118925760009060105481101561187e5760208260106101c594522001600090548152600f60205261272360408220916109b660408051926126dc84612ac0565b8554958685528260026001600160a01b036001840154169283602089015201549501948552815260086020528181209351815260066020522091604051946109af86612ac0565b604082015260405191829182612a61565b346101c95760206003193601126101c9576001600160a01b0361275561295a565b61275d613088565b166001600160a01b03196005541617600555600080f35b346101c95760006003193601126101c9576020600254604051908152f35b346101c95760006003193601126101c9576020600154604051908152f35b346101c95760006003193601126101c9576020600054604051908152f35b346101c95760206003193601126101c9576001600160a01b036127ef61295a565b6127f7612cd8565b501660005260086020526101c56128116040600020612dd6565b604051918291602083526020830190612a08565b346101c9576001600160a01b037fa5af97b3cc13b0eb02e8ad537bd66f9b6a7d1c2d8ea9ed053b916014c6ed1f326108c561285f36612986565b919490941680600052600c6020526128806001604060002001541515612c6a565b6128958230336001600160a01b038916613029565b600052600d60205260406000206001600160a01b03851660005260205260406000206128c2828254612cb5565b9055604051918291339583602090939291936001600160a01b0360408201951681520152565b346101c95760206003193601126101c957600435612904612bdc565b50600b54811015611892576000600b548210156129465780600b60209252200154600052600a6020526101c5604060002060ff600c60405192610a3084612aa3565b80634e487b7160e01b602492526032600452fd5b600435906001600160a01b03821682036101c957565b602435906001600160a01b03821682036101c957565b60031960609101126101c9576004356001600160a01b03811681036101c957906024356001600160a01b03811681036101c9579060443590565b60005b8381106129d35750506000910152565b81810151838201526020016129c3565b90601f19601f602093612a01815180928187528780880191016129c0565b0116010190565b906001600160a01b038251168152604060ff81612a3460208601516060602087015260608601906129e3565b9401511691015290565b9081518152604060ff81612a3460208601516060602087015260608601906129e3565b90612aa09160208152815160208201526040612a8b60208401516060838501526080840190612a08565b920151906060601f1982850301910152612a3e565b90565b6101a0810190811067ffffffffffffffff82111761053857604052565b6060810190811067ffffffffffffffff82111761053857604052565b6080810190811067ffffffffffffffff82111761053857604052565b90601f601f19910116810190811067ffffffffffffffff82111761053857604052565b67ffffffffffffffff811161053857601f01601f191660200190565b81601f820112156101c957602081359101612b5182612b1b565b92612b5f6040519485612af8565b828452828201116101c95781600092602092838601378301015290565b359060ff821682036101c957565b90612aa091602081526060612bab83516080602085015260a08401906129e3565b92602081015160408401526001600160a01b03604082015116828401520151906080601f19828503019101526129e3565b60405190612be982612aa3565b6000610180838281528260208201528260408201528260608201528260808201528260a08201528260c08201528260e0820152826101008201528261012082015282610140820152826101608201520152565b8054821015612c545760005260206000200190600090565b634e487b7160e01b600052603260045260246000fd5b15612c7157565b606460405162461bcd60e51b815260206004820152600d60248201527f4c5350206e6f7420666f756e64000000000000000000000000000000000000006044820152fd5b91908201809211612cc257565b634e487b7160e01b600052601160045260246000fd5b60405190612ce582612ac0565b6000604083828152606060208201520152565b90600182811c92168015612d28575b6020831014612d1257565b634e487b7160e01b600052602260045260246000fd5b91607f1691612d07565b9060405191826000825492612d4684612cf8565b8084529360018116908115612db45750600114612d6d575b50612d6b92500383612af8565b565b90506000929192526020600020906000915b818310612d98575050906020612d6b9282010138612d5e565b6020919350806001915483858901015201910190918492612d7f565b60209350612d6b95925060ff1991501682840152151560051b82010138612d5e565b90604051612de381612ac0565b604060ff600283956001600160a01b038154168552612e0460018201612d32565b6020860152015416910152565b60405190612e1e82612ac0565b8160008152612e2b612cd8565b60208201526040612e3a612cd8565b910152565b90604051612e4c81612ac0565b604060ff6002839580548552612e0460018201612d32565b9060ff612e7e6020929594956040855260408501906129e3565b9416910152565b60405190612e9282612adc565b6060808381815260006020820152600060408201520152565b81810292918115918404141715612cc257565b91908203918211612cc257565b612f5a926001600160a01b03968796612f63999496604051936020850195865260408501526bffffffffffffffffffffffff198860601b1660608501526074840152609483015260b482015260b48152612f2660d482612af8565b5190207f19457468657265756d205369676e6564204d6573736167653a0a333200000000600052601c52603c60002061332b565b90959195613367565b1691161490565b6001600160a01b03168015612ffa576001600160a01b037f9016d09d72d40fdae2fd8ceac6b6234c7706214fd39c1cd1e609a0528c19930054826001600160a01b03198216177f9016d09d72d40fdae2fd8ceac6b6234c7706214fd39c1cd1e609a0528c19930055167f8be0079c531659141344cd1fd0a4f28419497f9722a3daafe3b4186f6b6457e0600080a3565b7f1e4fbdf700000000000000000000000000000000000000000000000000000000600052600060045260246000fd5b9091926001600160a01b03612d6b9481604051957f23b872dd000000000000000000000000000000000000000000000000000000006020880152166024860152166044840152606483015260648252613083608483612af8565b613261565b6001600160a01b037f9016d09d72d40fdae2fd8ceac6b6234c7706214fd39c1cd1e609a0528c199300541633036130bb57565b7f118cdaa7000000000000000000000000000000000000000000000000000000006000523360045260246000fd5b60027f9b779b17422d0df92223018b32b4d1fa46e071723d6817e2486d003becc55f0054146131385760027f9b779b17422d0df92223018b32b4d1fa46e071723d6817e2486d003becc55f0055565b7f3ee5aeb50000000000000000000000000000000000000000000000000000000060005260046000fd5b8147106131da5760008080936001600160a01b038294165af13d156131d5573d61318b81612b1b565b906131996040519283612af8565b8152600060203d92013e5b156131ab57565b7fd6bda2750000000000000000000000000000000000000000000000000000000060005260046000fd5b6131a4565b50477fcf4791810000000000000000000000000000000000000000000000000000000060005260045260245260446000fd5b6040517fa9059cbb0000000000000000000000000000000000000000000000000000000060208201526001600160a01b03929092166024830152604480830193909352918152612d6b91613083606483612af8565b906000602091828151910182855af115611742576000513d6132c957506001600160a01b0381163b155b6132925750565b6001600160a01b03907f5274afe7000000000000000000000000000000000000000000000000000000006000521660045260246000fd5b6001141561328b565b60ff7ff0c57e16840df040f15088dc2f81fe391c3923bec73e23a9662efc9c229c6a005460401c161561330157565b7fd7e6bcf80000000000000000000000000000000000000000000000000000000060005260046000fd5b815191906041830361335c5761335592506020820151906060604084015193015160001a9061343a565b9192909190565b505060009160029190565b9190916004811015613424578061337d57509050565b6000600182036133b1577ff645eedf0000000000000000000000000000000000000000000000000000000060005260046000fd5b50600281036133e857827ffce698f70000000000000000000000000000000000000000000000000000000060005260045260246000fd5b90916003600092146133f8575050565b602492507fd78bce0c000000000000000000000000000000000000000000000000000000008252600452fd5b634e487b7160e01b600052602160045260246000fd5b91907f7fffffffffffffffffffffffffffffff5d576e7357a4501ddfe92f46681b20a084116134b7579160209360809260ff60009560405194855216868401526040830152606082015282805260015afa15611742576000516001600160a01b038116156134ab5790600090600090565b50600090600190600090565b5050506000916003919056fea2646970667358221220a4eeb7dd3e96ae986dcd907029f3c094f43a56f03a117bd65c33ffef94d1024564736f6c634300081b0033",
  "linkReferences": {},
  "deployedLinkReferences": {}
}