{
  "_format": "hh-sol-artifact-1",
  "contractName": "LNNodeNFT",
  "sourceName": "contracts/LNNodeNFT.sol",
  "abi": [
    {
      "inputs": [
        {
          "internalType": "string",
          "name": "name",
          "type": "string"
        },
        {
          "internalType": "string",
          "name": "symbol",
          "type": "string"
        }
      ],
      "stateMutability": "nonpayable",
      "type": "constructor"
    },
    {
      "inputs": [],
      "name": "AccessControlBadConfirmation",
      "type": "error"
    },
    {
      "inputs": [
        {
          "internalType": "address",
          "name": "account",
          "type": "address"
        },
        {
          "internalType": "bytes32",
          "name": "neededRole",
          "type": "bytes32"
        }
      ],
      "name": "AccessControlUnauthorizedAccount",
      "type": "error"
    },
    {
      "inputs": [],
      "name": "ERC721EnumerableForbiddenBatchMint",
      "type": "error"
    },
    {
      "inputs": [
        {
          "internalType": "address",
          "name": "sender",
          "type": "address"
        },
        {
          "internalType": "uint256",
          "name": "tokenId",
          "type": "uint256"
        },
        {
          "internalType": "address",
          "name": "owner",
          "type": "address"
        }
      ],
      "name": "ERC721IncorrectOwner",
      "type": "error"
    },
    {
      "inputs": [
        {
          "internalType": "address",
          "name": "operator",
          "type": "address"
        },
        {
          "internalType": "uint256",
          "name": "tokenId",
          "type": "uint256"
        }
      ],
      "name": "ERC721InsufficientApproval",
      "type": "error"
    },
    {
      "inputs": [
        {
          "internalType": "address",
          "name": "approver",
          "type": "address"
        }
      ],
      "name": "ERC721InvalidApprover",
      "type": "error"
    },
    {
      "inputs": [
        {
          "internalType": "address",
          "name": "operator",
          "type": "address"
        }
      ],
      "name": "ERC721InvalidOperator",
      "type": "error"
    },
    {
      "inputs": [
        {
          "internalType": "address",
          "name": "owner",
          "type": "address"
        }
      ],
      "name": "ERC721InvalidOwner",
      "type": "error"
    },
    {
      "inputs": [
        {
          "internalType": "address",
          "name": "receiver",
          "type": "address"
        }
      ],
      "name": "ERC721InvalidReceiver",
      "type": "error"
    },
    {
      "inputs": [
        {
          "internalType": "address",
          "name": "sender",
          "type": "address"
        }
      ],
      "name": "ERC721InvalidSender",
      "type": "error"
    },
    {
      "inputs": [
        {
          "internalType": "uint256",
          "name": "tokenId",
          "type": "uint256"
        }
      ],
      "name": "ERC721NonexistentToken",
      "type": "error"
    },
    {
      "inputs": [
        {
          "internalType": "address",
          "name": "owner",
          "type": "address"
        },
        {
          "internalType": "uint256",
          "name": "index",
          "type": "uint256"
        }
      ],
      "name": "ERC721OutOfBoundsIndex",
      "type": "error"
    },
    {
      "inputs": [
        {
          "internalType": "address",
          "name": "owner",
          "type": "address"
        }
      ],
      "name": "OwnableInvalidOwner",
      "type": "error"
    },
    {
      "inputs": [
        {
          "internalType": "address",
          "name": "account",
          "type": "address"
        }
      ],
      "name": "OwnableUnauthorizedAccount",
      "type": "error"
    },
    {
      "anonymous": false,
      "inputs": [
        {
          "indexed": true,
          "internalType": "address",
          "name": "owner",
          "type": "address"
        },
        {
          "indexed": true,
          "internalType": "address",
          "name": "approved",
          "type": "address"
        },
        {
          "indexed": true,
          "internalType": "uint256",
          "name": "tokenId",
          "type": "uint256"
        }
      ],
      "name": "Approval",
      "type": "event"
    },
    {
      "anonymous": false,
      "inputs": [
        {
          "indexed": true,
          "internalType": "address",
          "name": "owner",
          "type": "address"
        },
        {
          "indexed": true,
          "internalType": "address",
          "name": "operator",
          "type": "address"
        },
        {
          "indexed": false,
          "internalType": "bool",
          "name": "approved",
          "type": "bool"
        }
      ],
      "name": "ApprovalForAll",
      "type": "event"
    },
    {
      "anonymous": false,
      "inputs": [
        {
          "indexed": true,
          "internalType": "uint256",
          "name": "tokenId",
          "type": "uint256"
        },
        {
          "indexed": false,
          "internalType": "address",
          "name": "oldBuyer",
          "type": "address"
        },
        {
          "indexed": false,
          "internalType": "address",
          "name": "newBuyer",
          "type": "address"
        }
      ],
      "name": "BuyerUpdated",
      "type": "event"
    },
    {
      "anonymous": false,
      "inputs": [
        {
          "indexed": true,
          "internalType": "uint256",
          "name": "tokenId",
          "type": "uint256"
        },
        {
          "indexed": false,
          "internalType": "bytes32",
          "name": "lndPubkey",
          "type": "bytes32"
        },
        {
          "indexed": false,
          "internalType": "bytes32",
          "name": "nodeNpub",
          "type": "bytes32"
        }
      ],
      "name": "NodeActivated",
      "type": "event"
    },
    {
      "anonymous": false,
      "inputs": [
        {
          "indexed": true,
          "internalType": "uint256",
          "name": "tokenId",
          "type": "uint256"
        },
        {
          "indexed": true,
          "internalType": "address",
          "name": "owner",
          "type": "address"
        },
        {
          "indexed": true,
          "internalType": "address",
          "name": "buyer",
          "type": "address"
        }
      ],
      "name": "NodeMinted",
      "type": "event"
    },
    {
      "anonymous": false,
      "inputs": [
        {
          "indexed": true,
          "internalType": "uint256",
          "name": "tokenId",
          "type": "uint256"
        },
        {
          "indexed": false,
          "internalType": "bytes32",
          "name": "nodeNpub",
          "type": "bytes32"
        }
      ],
      "name": "NodeNpubBound",
      "type": "event"
    },
    {
      "anonymous": false,
      "inputs": [
        {
          "indexed": true,
          "internalType": "uint256",
          "name": "tokenId",
          "type": "uint256"
        },
        {
          "indexed": false,
          "internalType": "uint256",
          "name": "status",
          "type": "uint256"
        }
      ],
      "name": "NodeStatusChanged",
      "type": "event"
    },
    {
      "anonymous": false,
      "inputs": [
        {
          "indexed": true,
          "internalType": "address",
          "name": "previousOwner",
          "type": "address"
        },
        {
          "indexed": true,
          "internalType": "address",
          "name": "newOwner",
          "type": "address"
        }
      ],
      "name": "OwnershipTransferred",
      "type": "event"
    },
    {
      "anonymous": false,
      "inputs": [
        {
          "indexed": true,
          "internalType": "uint256",
          "name": "tokenId",
          "type": "uint256"
        },
        {
          "indexed": false,
          "internalType": "uint256",
          "name": "rewardType",
          "type": "uint256"
        },
        {
          "indexed": false,
          "internalType": "address",
          "name": "newRewardAddress",
          "type": "address"
        }
      ],
      "name": "RewardAddressUpdated",
      "type": "event"
    },
    {
      "anonymous": false,
      "inputs": [
        {
          "indexed": true,
          "internalType": "uint256",
          "name": "tokenId",
          "type": "uint256"
        },
        {
          "indexed": false,
          "internalType": "uint256",
          "name": "staticAmount",
          "type": "uint256"
        },
        {
          "indexed": false,
          "internalType": "uint256",
          "name": "dynamicAmount",
          "type": "uint256"
        },
        {
          "indexed": false,
          "internalType": "uint256",
          "name": "airdropAmount",
          "type": "uint256"
        }
      ],
      "name": "RewardsAdded",
      "type": "event"
    },
    {
      "anonymous": false,
      "inputs": [
        {
          "indexed": true,
          "internalType": "bytes32",
          "name": "role",
          "type": "bytes32"
        },
        {
          "indexed": true,
          "internalType": "bytes32",
          "name": "previousAdminRole",
          "type": "bytes32"
        },
        {
          "indexed": true,
          "internalType": "bytes32",
          "name": "newAdminRole",
          "type": "bytes32"
        }
      ],
      "name": "RoleAdminChanged",
      "type": "event"
    },
    {
      "anonymous": false,
      "inputs": [
        {
          "indexed": true,
          "internalType": "bytes32",
          "name": "role",
          "type": "bytes32"
        },
        {
          "indexed": true,
          "internalType": "address",
          "name": "account",
          "type": "address"
        },
        {
          "indexed": true,
          "internalType": "address",
          "name": "sender",
          "type": "address"
        }
      ],
      "name": "RoleGranted",
      "type": "event"
    },
    {
      "anonymous": false,
      "inputs": [
        {
          "indexed": true,
          "internalType": "bytes32",
          "name": "role",
          "type": "bytes32"
        },
        {
          "indexed": true,
          "internalType": "address",
          "name": "account",
          "type": "address"
        },
        {
          "indexed": true,
          "internalType": "address",
          "name": "sender",
          "type": "address"
        }
      ],
      "name": "RoleRevoked",
      "type": "event"
    },
    {
      "anonymous": false,
      "inputs": [
        {
          "indexed": true,
          "internalType": "address",
          "name": "from",
          "type": "address"
        },
        {
          "indexed": true,
          "internalType": "address",
          "name": "to",
          "type": "address"
        },
        {
          "indexed": true,
          "internalType": "uint256",
          "name": "tokenId",
          "type": "uint256"
        }
      ],
      "name": "Transfer",
      "type": "event"
    },
    {
      "inputs": [],
      "name": "DEFAULT_ADMIN_ROLE",
      "outputs": [
        {
          "internalType": "bytes32",
          "name": "",
          "type": "bytes32"
        }
      ],
      "stateMutability": "view",
      "type": "function"
    },
    {
      "inputs": [],
      "name": "REWARD_MANAGER_ROLE",
      "outputs": [
        {
          "internalType": "bytes32",
          "name": "",
          "type": "bytes32"
        }
      ],
      "stateMutability": "view",
      "type": "function"
    },
    {
      "inputs": [
        {
          "internalType": "uint256",
          "name": "tokenId",
          "type": "uint256"
        },
        {
          "internalType": "bytes32",
          "name": "lndPubkey",
          "type": "bytes32"
        },
        {
          "internalType": "bytes32",
          "name": "nodeNpub",
          "type": "bytes32"
        }
      ],
      "name": "activateNode",
      "outputs": [],
      "stateMutability": "nonpayable",
      "type": "function"
    },
    {
      "inputs": [
        {
          "internalType": "uint256",
          "name": "tokenId",
          "type": "uint256"
        },
        {
          "internalType": "uint256",
          "name": "rewards",
          "type": "uint256"
        }
      ],
      "name": "addChannelMiningRewards",
      "outputs": [],
      "stateMutability": "nonpayable",
      "type": "function"
    },
    {
      "inputs": [
        {
          "internalType": "address",
          "name": "to",
          "type": "address"
        },
        {
          "internalType": "uint256",
          "name": "tokenId",
          "type": "uint256"
        }
      ],
      "name": "approve",
      "outputs": [],
      "stateMutability": "nonpayable",
      "type": "function"
    },
    {
      "inputs": [
        {
          "internalType": "address",
          "name": "owner",
          "type": "address"
        }
      ],
      "name": "balanceOf",
      "outputs": [
        {
          "internalType": "uint256",
          "name": "",
          "type": "uint256"
        }
      ],
      "stateMutability": "view",
      "type": "function"
    },
    {
      "inputs": [
        {
          "internalType": "uint256",
          "name": "tokenId",
          "type": "uint256"
        },
        {
          "internalType": "bytes32",
          "name": "ownerNpub",
          "type": "bytes32"
        }
      ],
      "name": "bindNpub",
      "outputs": [],
      "stateMutability": "nonpayable",
      "type": "function"
    },
    {
      "inputs": [
        {
          "internalType": "address",
          "name": "addr",
          "type": "address"
        }
      ],
      "name": "canBecomeOwner",
      "outputs": [
        {
          "internalType": "bool",
          "name": "",
          "type": "bool"
        }
      ],
      "stateMutability": "view",
      "type": "function"
    },
    {
      "inputs": [
        {
          "internalType": "bytes32",
          "name": "npub",
          "type": "bytes32"
        }
      ],
      "name": "canBecomeOwnerNpub",
      "outputs": [
        {
          "internalType": "bool",
          "name": "",
          "type": "bool"
        }
      ],
      "stateMutability": "view",
      "type": "function"
    },
    {
      "inputs": [
        {
          "internalType": "uint256",
          "name": "tokenId",
          "type": "uint256"
        }
      ],
      "name": "claimChannelMiningRewards",
      "outputs": [],
      "stateMutability": "nonpayable",
      "type": "function"
    },
    {
      "inputs": [
        {
          "internalType": "uint256",
          "name": "tokenId",
          "type": "uint256"
        },
        {
          "internalType": "uint256",
          "name": "staticAmount",
          "type": "uint256"
        },
        {
          "internalType": "uint256",
          "name": "dynamicAmount",
          "type": "uint256"
        },
        {
          "internalType": "uint256",
          "name": "airdropAmount",
          "type": "uint256"
        }
      ],
      "name": "claimNodeMiningRewards",
      "outputs": [],
      "stateMutability": "nonpayable",
      "type": "function"
    },
    {
      "inputs": [
        {
          "internalType": "uint256",
          "name": "tokenId",
          "type": "uint256"
        }
      ],
      "name": "getApproved",
      "outputs": [
        {
          "internalType": "address",
          "name": "",
          "type": "address"
        }
      ],
      "stateMutability": "view",
      "type": "function"
    },
    {
      "inputs": [
        {
          "internalType": "address",
          "name": "buyer",
          "type": "address"
        }
      ],
      "name": "getBuyerAllocationCount",
      "outputs": [
        {
          "internalType": "uint256",
          "name": "",
          "type": "uint256"
        }
      ],
      "stateMutability": "view",
      "type": "function"
    },
    {
      "inputs": [
        {
          "internalType": "uint256",
          "name": "tokenId",
          "type": "uint256"
        }
      ],
      "name": "getChannelMiningRewards",
      "outputs": [
        {
          "components": [
            {
              "internalType": "uint256",
              "name": "rewards",
              "type": "uint256"
            },
            {
              "internalType": "uint256",
              "name": "claimedRewards",
              "type": "uint256"
            }
          ],
          "internalType": "struct LNNodeNFT.ChannelMiningRewards",
          "name": "channelMiningReward",
          "type": "tuple"
        }
      ],
      "stateMutability": "view",
      "type": "function"
    },
    {
      "inputs": [
        {
          "internalType": "address",
          "name": "buyer",
          "type": "address"
        }
      ],
      "name": "getMintAvailable",
      "outputs": [
        {
          "internalType": "uint256",
          "name": "totalCount",
          "type": "uint256"
        },
        {
          "internalType": "uint256",
          "name": "mintableCount",
          "type": "uint256"
        }
      ],
      "stateMutability": "view",
      "type": "function"
    },
    {
      "inputs": [
        {
          "internalType": "uint256",
          "name": "tokenId",
          "type": "uint256"
        }
      ],
      "name": "getNode",
      "outputs": [
        {
          "components": [
            {
              "internalType": "address",
              "name": "ownerAddr",
              "type": "address"
            },
            {
              "internalType": "bytes32",
              "name": "ownerNpub",
              "type": "bytes32"
            },
            {
              "internalType": "address",
              "name": "staticRewardAddr",
              "type": "address"
            },
            {
              "internalType": "address",
              "name": "dynamicRewardAddr",
              "type": "address"
            },
            {
              "internalType": "bytes32",
              "name": "lndPubkey",
              "type": "bytes32"
            },
            {
              "internalType": "bytes32",
              "name": "nodeNpub",
              "type": "bytes32"
            },
            {
              "internalType": "address",
              "name": "buyer",
              "type": "address"
            },
            {
              "internalType": "uint256",
              "name": "status",
              "type": "uint256"
            }
          ],
          "internalType": "struct LNNodeNFT.LNNode",
          "name": "",
          "type": "tuple"
        }
      ],
      "stateMutability": "view",
      "type": "function"
    },
    {
      "inputs": [
        {
          "internalType": "uint256",
          "name": "tokenId",
          "type": "uint256"
        }
      ],
      "name": "getNodeMiningRewards",
      "outputs": [
        {
          "components": [
            {
              "internalType": "uint256",
              "name": "airdropRewards",
              "type": "uint256"
            },
            {
              "internalType": "uint256",
              "name": "airdropClaimedRewards",
              "type": "uint256"
            },
            {
              "internalType": "uint256",
              "name": "staticUnlockedRewards",
              "type": "uint256"
            },
            {
              "internalType": "uint256",
              "name": "staticTotalRewards",
              "type": "uint256"
            },
            {
              "internalType": "uint256",
              "name": "staticClaimedRewards",
              "type": "uint256"
            },
            {
              "internalType": "uint256",
              "name": "dynamicUnlockedRewards",
              "type": "uint256"
            },
            {
              "internalType": "uint256",
              "name": "dynamicTotalRewards",
              "type": "uint256"
            },
            {
              "internalType": "uint256",
              "name": "dynamicClaimedRewards",
              "type": "uint256"
            }
          ],
          "internalType": "struct LNNodeNFT.NodeMiningRewards",
          "name": "nodeMiningReward",
          "type": "tuple"
        }
      ],
      "stateMutability": "view",
      "type": "function"
    },
    {
      "inputs": [],
      "name": "getNodeSaleAddress",
      "outputs": [
        {
          "internalType": "address",
          "name": "",
          "type": "address"
        }
      ],
      "stateMutability": "view",
      "type": "function"
    },
    {
      "inputs": [
        {
          "internalType": "bytes32",
          "name": "role",
          "type": "bytes32"
        }
      ],
      "name": "getRoleAdmin",
      "outputs": [
        {
          "internalType": "bytes32",
          "name": "",
          "type": "bytes32"
        }
      ],
      "stateMutability": "view",
      "type": "function"
    },
    {
      "inputs": [
        {
          "internalType": "bytes32",
          "name": "lndPubkey",
          "type": "bytes32"
        }
      ],
      "name": "getTokenIdByLndPubkey",
      "outputs": [
        {
          "internalType": "uint256",
          "name": "",
          "type": "uint256"
        }
      ],
      "stateMutability": "view",
      "type": "function"
    },
    {
      "inputs": [
        {
          "internalType": "bytes32",
          "name": "nodeNpub",
          "type": "bytes32"
        }
      ],
      "name": "getTokenIdByNodeNpub",
      "outputs": [
        {
          "internalType": "uint256",
          "name": "",
          "type": "uint256"
        }
      ],
      "stateMutability": "view",
      "type": "function"
    },
    {
      "inputs": [
        {
          "internalType": "address",
          "name": "owner",
          "type": "address"
        }
      ],
      "name": "getTokenIdByOwner",
      "outputs": [
        {
          "internalType": "uint256",
          "name": "",
          "type": "uint256"
        }
      ],
      "stateMutability": "view",
      "type": "function"
    },
    {
      "inputs": [
        {
          "internalType": "bytes32",
          "name": "ownerNpub",
          "type": "bytes32"
        }
      ],
      "name": "getTokenIdByOwnerNpub",
      "outputs": [
        {
          "internalType": "uint256",
          "name": "",
          "type": "uint256"
        }
      ],
      "stateMutability": "view",
      "type": "function"
    },
    {
      "inputs": [
        {
          "internalType": "bytes32",
          "name": "role",
          "type": "bytes32"
        },
        {
          "internalType": "address",
          "name": "account",
          "type": "address"
        }
      ],
      "name": "grantRole",
      "outputs": [],
      "stateMutability": "nonpayable",
      "type": "function"
    },
    {
      "inputs": [
        {
          "internalType": "bytes32",
          "name": "role",
          "type": "bytes32"
        },
        {
          "internalType": "address",
          "name": "account",
          "type": "address"
        }
      ],
      "name": "hasRole",
      "outputs": [
        {
          "internalType": "bool",
          "name": "",
          "type": "bool"
        }
      ],
      "stateMutability": "view",
      "type": "function"
    },
    {
      "inputs": [
        {
          "internalType": "uint256",
          "name": "tokenId",
          "type": "uint256"
        },
        {
          "internalType": "uint256",
          "name": "rewards",
          "type": "uint256"
        }
      ],
      "name": "initChannelMiningRewards",
      "outputs": [],
      "stateMutability": "nonpayable",
      "type": "function"
    },
    {
      "inputs": [
        {
          "internalType": "uint256",
          "name": "tokenId",
          "type": "uint256"
        },
        {
          "internalType": "uint256",
          "name": "airdropAmount",
          "type": "uint256"
        },
        {
          "internalType": "uint256",
          "name": "staticAmount",
          "type": "uint256"
        },
        {
          "internalType": "uint256",
          "name": "dynamicAmount",
          "type": "uint256"
        }
      ],
      "name": "initNodeMiningRewards",
      "outputs": [],
      "stateMutability": "nonpayable",
      "type": "function"
    },
    {
      "inputs": [
        {
          "internalType": "address",
          "name": "owner",
          "type": "address"
        },
        {
          "internalType": "address",
          "name": "operator",
          "type": "address"
        }
      ],
      "name": "isApprovedForAll",
      "outputs": [
        {
          "internalType": "bool",
          "name": "",
          "type": "bool"
        }
      ],
      "stateMutability": "view",
      "type": "function"
    },
    {
      "inputs": [
        {
          "internalType": "address",
          "name": "to",
          "type": "address"
        }
      ],
      "name": "mintNode",
      "outputs": [
        {
          "internalType": "uint256",
          "name": "tokenId",
          "type": "uint256"
        }
      ],
      "stateMutability": "nonpayable",
      "type": "function"
    },
    {
      "inputs": [],
      "name": "name",
      "outputs": [
        {
          "internalType": "string",
          "name": "",
          "type": "string"
        }
      ],
      "stateMutability": "view",
      "type": "function"
    },
    {
      "inputs": [],
      "name": "owner",
      "outputs": [
        {
          "internalType": "address",
          "name": "",
          "type": "address"
        }
      ],
      "stateMutability": "view",
      "type": "function"
    },
    {
      "inputs": [
        {
          "internalType": "uint256",
          "name": "tokenId",
          "type": "uint256"
        }
      ],
      "name": "ownerOf",
      "outputs": [
        {
          "internalType": "address",
          "name": "",
          "type": "address"
        }
      ],
      "stateMutability": "view",
      "type": "function"
    },
    {
      "inputs": [],
      "name": "renounceOwnership",
      "outputs": [],
      "stateMutability": "nonpayable",
      "type": "function"
    },
    {
      "inputs": [
        {
          "internalType": "bytes32",
          "name": "role",
          "type": "bytes32"
        },
        {
          "internalType": "address",
          "name": "callerConfirmation",
          "type": "address"
        }
      ],
      "name": "renounceRole",
      "outputs": [],
      "stateMutability": "nonpayable",
      "type": "function"
    },
    {
      "inputs": [
        {
          "internalType": "bytes32",
          "name": "role",
          "type": "bytes32"
        },
        {
          "internalType": "address",
          "name": "account",
          "type": "address"
        }
      ],
      "name": "revokeRole",
      "outputs": [],
      "stateMutability": "nonpayable",
      "type": "function"
    },
    {
      "inputs": [
        {
          "internalType": "address",
          "name": "from",
          "type": "address"
        },
        {
          "internalType": "address",
          "name": "to",
          "type": "address"
        },
        {
          "internalType": "uint256",
          "name": "tokenId",
          "type": "uint256"
        }
      ],
      "name": "safeTransferFrom",
      "outputs": [],
      "stateMutability": "nonpayable",
      "type": "function"
    },
    {
      "inputs": [
        {
          "internalType": "address",
          "name": "from",
          "type": "address"
        },
        {
          "internalType": "address",
          "name": "to",
          "type": "address"
        },
        {
          "internalType": "uint256",
          "name": "tokenId",
          "type": "uint256"
        },
        {
          "internalType": "bytes",
          "name": "data",
          "type": "bytes"
        }
      ],
      "name": "safeTransferFrom",
      "outputs": [],
      "stateMutability": "nonpayable",
      "type": "function"
    },
    {
      "inputs": [
        {
          "internalType": "address",
          "name": "operator",
          "type": "address"
        },
        {
          "internalType": "bool",
          "name": "approved",
          "type": "bool"
        }
      ],
      "name": "setApprovalForAll",
      "outputs": [],
      "stateMutability": "nonpayable",
      "type": "function"
    },
    {
      "inputs": [
        {
          "internalType": "string",
          "name": "baseURI",
          "type": "string"
        }
      ],
      "name": "setBaseURI",
      "outputs": [],
      "stateMutability": "nonpayable",
      "type": "function"
    },
    {
      "inputs": [
        {
          "internalType": "uint256",
          "name": "tokenId",
          "type": "uint256"
        },
        {
          "internalType": "address",
          "name": "newRewardAddress",
          "type": "address"
        }
      ],
      "name": "setDynamicRewardAddress",
      "outputs": [],
      "stateMutability": "nonpayable",
      "type": "function"
    },
    {
      "inputs": [
        {
          "internalType": "address",
          "name": "nodeSaleAddress",
          "type": "address"
        }
      ],
      "name": "setNodeSaleAddress",
      "outputs": [],
      "stateMutability": "nonpayable",
      "type": "function"
    },
    {
      "inputs": [
        {
          "internalType": "uint256",
          "name": "tokenId",
          "type": "uint256"
        },
        {
          "internalType": "uint256",
          "name": "status",
          "type": "uint256"
        }
      ],
      "name": "setNodeStatus",
      "outputs": [],
      "stateMutability": "nonpayable",
      "type": "function"
    },
    {
      "inputs": [
        {
          "internalType": "uint256",
          "name": "tokenId",
          "type": "uint256"
        },
        {
          "internalType": "address",
          "name": "newRewardAddress",
          "type": "address"
        }
      ],
      "name": "setStaticRewardAddress",
      "outputs": [],
      "stateMutability": "nonpayable",
      "type": "function"
    },
    {
      "inputs": [
        {
          "internalType": "bytes4",
          "name": "interfaceId",
          "type": "bytes4"
        }
      ],
      "name": "supportsInterface",
      "outputs": [
        {
          "internalType": "bool",
          "name": "",
          "type": "bool"
        }
      ],
      "stateMutability": "view",
      "type": "function"
    },
    {
      "inputs": [],
      "name": "symbol",
      "outputs": [
        {
          "internalType": "string",
          "name": "",
          "type": "string"
        }
      ],
      "stateMutability": "view",
      "type": "function"
    },
    {
      "inputs": [
        {
          "internalType": "uint256",
          "name": "index",
          "type": "uint256"
        }
      ],
      "name": "tokenByIndex",
      "outputs": [
        {
          "internalType": "uint256",
          "name": "",
          "type": "uint256"
        }
      ],
      "stateMutability": "view",
      "type": "function"
    },
    {
      "inputs": [
        {
          "internalType": "address",
          "name": "owner",
          "type": "address"
        },
        {
          "internalType": "uint256",
          "name": "index",
          "type": "uint256"
        }
      ],
      "name": "tokenOfOwnerByIndex",
      "outputs": [
        {
          "internalType": "uint256",
          "name": "",
          "type": "uint256"
        }
      ],
      "stateMutability": "view",
      "type": "function"
    },
    {
      "inputs": [
        {
          "internalType": "uint256",
          "name": "tokenId",
          "type": "uint256"
        }
      ],
      "name": "tokenURI",
      "outputs": [
        {
          "internalType": "string",
          "name": "",
          "type": "string"
        }
      ],
      "stateMutability": "view",
      "type": "function"
    },
    {
      "inputs": [],
      "name": "totalSupply",
      "outputs": [
        {
          "internalType": "uint256",
          "name": "",
          "type": "uint256"
        }
      ],
      "stateMutability": "view",
      "type": "function"
    },
    {
      "inputs": [
        {
          "internalType": "address",
          "name": "from",
          "type": "address"
        },
        {
          "internalType": "address",
          "name": "to",
          "type": "address"
        },
        {
          "internalType": "uint256",
          "name": "tokenId",
          "type": "uint256"
        }
      ],
      "name": "transferFrom",
      "outputs": [],
      "stateMutability": "nonpayable",
      "type": "function"
    },
    {
      "inputs": [
        {
          "internalType": "address",
          "name": "newOwner",
          "type": "address"
        }
      ],
      "name": "transferOwnership",
      "outputs": [],
      "stateMutability": "nonpayable",
      "type": "function"
    },
    {
      "inputs": [
        {
          "internalType": "uint256",
          "name": "tokenId",
          "type": "uint256"
        },
        {
          "internalType": "address",
          "name": "newBuyer",
          "type": "address"
        }
      ],
      "name": "updateBuyer",
      "outputs": [],
      "stateMutability": "nonpayable",
      "type": "function"
    },
    {
      "inputs": [
        {
          "internalType": "uint256",
          "name": "tokenId",
          "type": "uint256"
        },
        {
          "internalType": "uint256",
          "name": "amount",
          "type": "uint256"
        }
      ],
      "name": "updateDynamicUnlockedRewards",
      "outputs": [],
      "stateMutability": "nonpayable",
      "type": "function"
    },
    {
      "inputs": [
        {
          "internalType": "uint256",
          "name": "tokenId",
          "type": "uint256"
        },
        {
          "internalType": "uint256",
          "name": "amount",
          "type": "uint256"
        }
      ],
      "name": "updateStaticUnlockedRewards",
      "outputs": [],
      "stateMutability": "nonpayable",
      "type": "function"
    }
  ],
  "bytecode": "0x6080604052346103b15761429a80380380610019816103b6565b9283398101906040818303126103b15780516001600160401b0381116103b157826100459183016103db565b60208201519092906001600160401b0381116103b15761006592016103db565b81516001600160401b0381116102be57600054600181811c911680156103a7575b602082101461029e57601f8111610343575b50602092601f82116001146102df57928192936000926102d4575b50508160011b916000199060031b1c1916176000555b80516001600160401b0381116102be57600154600181811c911680156102b4575b602082101461029e57601f8111610239575b50602091601f82116001146101d5579181926000926101ca575b50508160011b916000199060031b1c1916176001555b33156101b457600b8054336001600160a01b0319821681179092556001600160a01b03167f8be0079c531659141344cd1fd0a4f28419497f9722a3daafe3b4186f6b6457e0600080a3690878678326eac9000000601455690cb49b44ba602d80000060155561019a33610446565b506101a4336104e6565b50604051613cdb908161057f8239f35b631e4fbdf760e01b600052600060045260246000fd5b015190503880610116565b601f198216926001600052806000209160005b85811061022157508360019510610208575b505050811b0160015561012c565b015160001960f88460031b161c191690553880806101fa565b919260206001819286850151815501940192016101e8565b60016000527fb10e2d527612073b26eecdfd717e6a320cf44b4afac2b0732d9fcbe2b7fa0cf6601f830160051c81019160208410610294575b601f0160051c01905b81811061028857506100fc565b6000815560010161027b565b9091508190610272565b634e487b7160e01b600052602260045260246000fd5b90607f16906100ea565b634e487b7160e01b600052604160045260246000fd5b0151905038806100b3565b601f1982169360008052806000209160005b86811061032b5750836001959610610312575b505050811b016000556100c9565b015160001960f88460031b161c19169055388080610304565b919260206001819286850151815501940192016102f1565b600080527f290decd9548b62a8d60345a988386fc84ba6bc95484008f6362f93160ef3e563601f830160051c8101916020841061039d575b601f0160051c01905b8181106103915750610098565b60008155600101610384565b909150819061037b565b90607f1690610086565b600080fd5b6040519190601f01601f191682016001600160401b038111838210176102be57604052565b81601f820112156103b1578051906001600160401b0382116102be5761040a601f8301601f19166020016103b6565b92828452602083830101116103b15760005b82811061043157505060206000918301015290565b8060208092840101518282870101520161041c565b6001600160a01b03811660009081527f13da86008ba1c6922daee3e07db95305ef49ebced9f5467a0b8613fcc6b343e3602052604090205460ff166104e0576001600160a01b031660008181527f13da86008ba1c6922daee3e07db95305ef49ebced9f5467a0b8613fcc6b343e360205260408120805460ff1916600117905533919060008051602061425a8339815191528180a4600190565b50600090565b6001600160a01b038116600090815260008051602061427a833981519152602052604090205460ff166104e0576001600160a01b0316600081815260008051602061427a83398151915260205260408120805460ff191660011790553391907f0f51adb3f49e4a9bbb17b3783f025995eaf8c24be2c8eefff214bdfda05ef94d9060008051602061425a8339815191529080a460019056fe608080604052600436101561001357600080fd5b60003560e01c90816301ffc9a714612c075750806302be33c014612b7d5780630355a91b14612b5657806306fdde0314612ab1578063081812fc14612a93578063095ea7b3146129845780630f9b13e2146121ea57806316dd08911461206d5780631780f11d1461203e57806318160ddd146120205780631f21fe2014611e4e57806323b872dd14611e37578063248a9ca314611e0a57806325ede13214611dde5780632807908714611d905780632f2ff15d14611d505780632f745c5914611cc557806336568abe14611c665780633ac116a214611c3a5780634086b17114611aeb57806342842e0e14611ac157806344500ee614611a615780634d05adb0146119205780634f0f4aa9146118385780634f6ccce7146117ce57806355f804b3146115ea5780635e4801c0146114a95780636352211e1461147a5780636d750d801461143f57806370a0823114611414578063715018a6146113b957806376bdd1001461131e57806388942f8d146112f25780638da5cb5b146112cb57806391d148541461127d57806395d89b41146111af5780639788ada0146110725780639c1d2c9a14610fd75780639c4337ae14610f74578063a217fddf14610f58578063a22cb46514610e9e578063a98a761714610df5578063b7880d3a14610db4578063b88d4fde14610d54578063c87b56dd14610a69578063d547741f14610a22578063e5117eb6146109e8578063e8e814341461071a578063e985e9c5146106bd578063ea55763314610683578063ed8b5f0d146105bc578063f2fde38b1461051a578063f4c925cd146104f35763fdc079ab1461027157600080fd5b346104ee5761027f36612e00565b61029361028e85939495613ad0565b612f38565b831561048457821561041a5780156103b05781600052600d60205260036040600020015461034657600792604051946102cb86612e1e565b85526020850190600082526040860190600082526060870190815260808701916000835260a08801936000855260c0890195865260e089019660008852600052600d60205260406000209851895551600189015551600288015551600387015551600486015551600585015551600684015551910155600080f35b608460405162461bcd60e51b815260206004820152603260248201527f4c4e4e6f64654e46543a206e6f6465206d696e696e672072657761726473206160448201527f6c726561647920696e697469616c697a656400000000000000000000000000006064820152fd5b608460405162461bcd60e51b815260206004820152602f60248201527f4c4e4e6f64654e46543a2064796e616d6963416d6f756e74206d75737420626560448201527f2067726561746572207468616e203000000000000000000000000000000000006064820152fd5b608460405162461bcd60e51b815260206004820152602e60248201527f4c4e4e6f64654e46543a20737461746963416d6f756e74206d7573742062652060448201527f67726561746572207468616e20300000000000000000000000000000000000006064820152fd5b608460405162461bcd60e51b815260206004820152602f60248201527f4c4e4e6f64654e46543a2061697264726f70416d6f756e74206d75737420626560448201527f2067726561746572207468616e203000000000000000000000000000000000006064820152fd5b600080fd5b346104ee5760006003193601126104ee5760206001600160a01b0360175416604051908152f35b346104ee5760206003193601126104ee576001600160a01b0361053b612d3c565b610543613972565b16801561058d576001600160a01b03600b54826001600160a01b0319821617600b55167f8be0079c531659141344cd1fd0a4f28419497f9722a3daafe3b4186f6b6457e0600080a3005b7f1e4fbdf700000000000000000000000000000000000000000000000000000000600052600060045260246000fd5b346104ee5760206003193601126104ee576105d5613637565b50600435600052600d60205261010060406000206040516105f581612e1e565b8154918282526001810154602083019081526002820154604084019081526003830154606085019081526004840154916080860192835260058501549360a0870194855260e0600760068801549760c08a01988952015497019687526040519788525160208801525160408701525160608601525160808501525160a08401525160c08301525160e0820152f35b346104ee5760206003193601126104ee576001600160a01b036106a4612d3c565b1660005260106020526020604060002054604051908152f35b346104ee5760406003193601126104ee576106d6612d3c565b6001600160a01b036106e6612d52565b911660005260056020526001600160a01b0360406000209116600052602052602060ff604060002054166040519015158152f35b346104ee5760606003193601126104ee576004356044356024356107466107418433613ae7565b613041565b61075261028e84613ad0565b82600052600c60205261076f6001600760406000200154146130b2565b801561097e578115610914578060005260126020526040600020546108aa57816000526013602052604060002054610840576000838152600c6020908152604080832060048101859055600581018690556002600790910155838352601282528083208690558483526013825291829020859055815192835282019290925282917f34566f14fc2f11385df79dbe0f855525fca91670b4d92914c0d4fe380097912f91a27f1d97b968b2dd0f2e716727c33a980547f673226d95a9aa739e79691d99db12d4602060405160028152a2005b608460405162461bcd60e51b815260206004820152602660248201527f4c4e4e6f64654e46543a206e6f64654e70756220616c7265616479207265676960448201527f73746572656400000000000000000000000000000000000000000000000000006064820152fd5b608460405162461bcd60e51b815260206004820152602760248201527f4c4e4e6f64654e46543a206c6e645075626b657920616c72656164792072656760448201527f69737465726564000000000000000000000000000000000000000000000000006064820152fd5b608460405162461bcd60e51b815260206004820152602260248201527f4c4e4e6f64654e46543a206e6f64654e7075622063616e6e6f74206265207a6560448201527f726f0000000000000000000000000000000000000000000000000000000000006064820152fd5b608460405162461bcd60e51b815260206004820152602360248201527f4c4e4e6f64654e46543a206c6e645075626b65792063616e6e6f74206265207a60448201527f65726f00000000000000000000000000000000000000000000000000000000006064820152fd5b346104ee5760206003193601126104ee576001600160a01b03610a09612d3c565b16600052600f6020526020604060002054604051908152f35b346104ee5760406003193601126104ee57610a67600435610a41612d52565b90610a62610a5d82600052600a60205260016040600020015490565b613a70565b613c16565b005b346104ee5760206003193601126104ee57600435610a86816139b4565b506040516016549190600081610a9b85612eda565b918282526020820195600181169081600014610d385750600114610cd7575b610ac692500382612e57565b805160009015610cb957508190826000937a184f03e93ff9f4daa797ed6e38ed64bf6a1f010000000000000000811015610c8e575b50806d04ee2d6d415b85acef8100000000600a921015610c73575b662386f26fc10000811015610c5f575b6305f5e100811015610c4e575b612710811015610c3f575b6064811015610c31575b1015610c27575b6001830191600a6000196021610b7d610b6787612e7a565b96610b756040519889612e57565b808852612e7a565b96601f196020880198013689378601015b01917f30313233343536373839616263646566000000000000000000000000000000008282061a835304908115610bcb57600a9060001990610b8e565b50506020610bf093610c0f93610bff610c239760405197889651809287890190612d7e565b85019151809385840190612d7e565b010103601f198101835282612e57565b604051918291602083526020830190612da1565b0390f35b9160010191610b4f565b606460029104940193610b48565b61271060049104940193610b3e565b6305f5e10060089104940193610b33565b662386f26fc1000060109104940193610b26565b6d04ee2d6d415b85acef810000000060209104940193610b16565b604094507a184f03e93ff9f4daa797ed6e38ed64bf6a1f01000000000000000090049050600a610afb565b915050610c23915060405190610cd0602083612e57565b8152610c0f565b509060166000527fd833147d7dc355ba459fc788f669e58cfaf9dc25ddcd0702e87d69c7b5124289906000915b818310610d1c575050906020610ac692820101610aba565b6020919350806001915483858801015201910190918392610d04565b60ff1916875250610ac692151560051b82016020019050610aba565b346104ee5760806003193601126104ee57610d6d612d3c565b610d75612d52565b6064359167ffffffffffffffff83116104ee57366023840112156104ee57610daa610a67933690602481600401359101612e96565b9160443591613765565b346104ee5760206003193601126104ee5760043580151580610dde575b6020906040519015158152f35b506000526011602052602060406000205415610dd1565b346104ee5760206003193601126104ee57600435610e1561028e82613ad0565b6000818152600e602052604090208054600190910154610e3491612f83565b908115610e5a57600052600e602052610e566001604060002001918254612ecd565b9055005b606460405162461bcd60e51b815260206004820152601e60248201527f4c4e4e6f64654e46543a206e6f207265776172647320746f20636c61696d00006044820152fd5b346104ee5760406003193601126104ee57610eb7612d3c565b602435908115158092036104ee576001600160a01b0316908115610f2a57336000526005602052604060002082600052602052604060002060ff1981541660ff83161790556040519081527f17307eab39ab6107e8899845ad3d59bd9653f200f220920489ca2b5937696c3160203392a3005b507f5b08ba180000000000000000000000000000000000000000000000000000000060005260045260246000fd5b346104ee5760006003193601126104ee57602060405160008152f35b346104ee5760207f1d97b968b2dd0f2e716727c33a980547f673226d95a9aa739e79691d99db12d4610fa536612d68565b610fb0939193613a04565b610fbc61028e85613ad0565b83600052600c825280600760406000200155604051908152a2005b346104ee5760406003193601126104ee576004357f5acb3b414bca4600a2fe019c5df6ba4386d2f9a5efc43c8a899b3b500d6d198360406001600160a01b0361101e612d52565b61102b6107418633613ae7565b61103761028e86613ad0565b166110438115156136f4565b83600052600c60205260038260002001816001600160a01b0319825416179055815190600182526020820152a2005b346104ee5761108036612d68565b9061108d61028e82613ad0565b81156111455780600052600e6020526040600020546110db57600190604051926110b684612e3b565b8352602083019060008252600052600e60205260406000209251835551910155600080f35b608460405162461bcd60e51b815260206004820152603560248201527f4c4e4e6f64654e46543a206368616e6e656c206d696e696e672072657761726460448201527f7320616c726561647920696e697469616c697a656400000000000000000000006064820152fd5b608460405162461bcd60e51b815260206004820152602960248201527f4c4e4e6f64654e46543a2072657761726473206d75737420626520677265617460448201527f6572207468616e203000000000000000000000000000000000000000000000006064820152fd5b346104ee5760006003193601126104ee5760405160006001546111d181612eda565b808452906001811690811561125957506001146111f9575b610c2383610c0f81850382612e57565b91905060016000527fb10e2d527612073b26eecdfd717e6a320cf44b4afac2b0732d9fcbe2b7fa0cf6916000905b80821061123f57509091508101602001610c0f6111e9565b919260018160209254838588010152019101909291611227565b60ff191660208086019190915291151560051b84019091019150610c0f90506111e9565b346104ee5760406003193601126104ee57611296612d52565b600435600052600a6020526001600160a01b0360406000209116600052602052602060ff604060002054166040519015158152f35b346104ee5760006003193601126104ee5760206001600160a01b03600b5416604051908152f35b346104ee5760206003193601126104ee5760043560005260136020526020604060002054604051908152f35b346104ee5760406003193601126104ee576004357f5acb3b414bca4600a2fe019c5df6ba4386d2f9a5efc43c8a899b3b500d6d198360406001600160a01b03611365612d52565b6113726107418633613ae7565b61137e61028e86613ad0565b1661138a8115156136f4565b83600052600c60205260028260002001816001600160a01b0319825416179055815190600082526020820152a2005b346104ee5760006003193601126104ee576113d2613972565b60006001600160a01b03600b546001600160a01b03198116600b55167f8be0079c531659141344cd1fd0a4f28419497f9722a3daafe3b4186f6b6457e08280a3005b346104ee5760206003193601126104ee576020611437611432612d3c565b6136a5565b604051908152f35b346104ee5760006003193601126104ee5760206040517f0f51adb3f49e4a9bbb17b3783f025995eaf8c24be2c8eefff214bdfda05ef94d8152f35b346104ee5760206003193601126104ee5760206114986004356139b4565b6001600160a01b0360405191168152f35b346104ee576114b736612d68565b906114c461028e82613ad0565b6114cf8215156135c6565b80600052600d60205260066040600020015482116115805780600052600d60205281600560406000200154101561151657600052600d602052600560406000200155600080f35b608460405162461bcd60e51b815260206004820152603760248201527f4c4e4e6f64654e46543a20616d6f756e74206973206c657373207468616e206460448201527f796e616d696320756e6c6f636b656420726577617264730000000000000000006064820152fd5b608460405162461bcd60e51b815260206004820152602f60248201527f4c4e4e6f64654e46543a20616d6f756e7420657863656564732064796e616d6960448201527f6320746f74616c207265776172647300000000000000000000000000000000006064820152fd5b346104ee5760206003193601126104ee5760043567ffffffffffffffff81116104ee57366023820112156104ee5761162c903690602481600401359101612e96565b611634613972565b805167ffffffffffffffff81116117b857611650601654612eda565b601f8111611715575b50602091601f82116001146116975791819260009261168c575b50506000198260011b9260031b1c191617601655600080f35b015190508280611673565b601f1982169260166000527fd833147d7dc355ba459fc788f669e58cfaf9dc25ddcd0702e87d69c7b51242899160005b8581106116fd575083600195106116e4575b505050811b01601655005b015160001960f88460031b161c191690558280806116d9565b919260206001819286850151815501940192016116c7565b6016600052601f820160051c7fd833147d7dc355ba459fc788f669e58cfaf9dc25ddcd0702e87d69c7b5124289019060208310611790575b601f0160051c7fd833147d7dc355ba459fc788f669e58cfaf9dc25ddcd0702e87d69c7b512428901905b8181106117845750611659565b60008155600101611777565b7fd833147d7dc355ba459fc788f669e58cfaf9dc25ddcd0702e87d69c7b5124289915061174d565b634e487b7160e01b600052604160045260246000fd5b346104ee5760206003193601126104ee57600435600854811015611806576117f7602091613674565b90549060031b1c604051908152f35b7fa57d13dc00000000000000000000000000000000000000000000000000000000600052600060045260245260446000fd5b346104ee5760206003193601126104ee57600435611854613637565b5061186161028e82613ad0565b600052600c602052610100604060002060405161187d81612e1e565b6001600160a01b0380835416928383526001810154602084019081528260028301541660408501908152838060038501541660608701908152816004860154936080890194855260058701549560a08a0196875260e060078460068b0154169960c08d019a8b5201549a01998a526040519a8b525160208b015251166040890152511660608701525160808601525160a0850152511660c08301525160e0820152f35b346104ee5761192e36612d68565b9061193b61028e82613ad0565b6119468215156135c6565b80600052600d60205260036040600020015482116119f75780600052600d60205281600260406000200154101561198d57600052600d602052600260406000200155600080f35b608460405162461bcd60e51b815260206004820152603660248201527f4c4e4e6f64654e46543a20616d6f756e74206973206c657373207468616e207360448201527f746174696320756e6c6f636b65642072657761726473000000000000000000006064820152fd5b608460405162461bcd60e51b815260206004820152602e60248201527f4c4e4e6f64654e46543a20616d6f756e7420657863656564732073746174696360448201527f20746f74616c20726577617264730000000000000000000000000000000000006064820152fd5b346104ee5760206003193601126104ee5760006020604051611a8281612e3b565b8281520152600435600052600e6020526040806000208151611aa381612e3b565b60206001835493848452015491019081528251918252516020820152f35b346104ee57610a67611ad236612dc6565b9060405192611ae2602085612e57565b60008452613765565b346104ee57611af936612e00565b91611b0661028e85613ad0565b83600052600d60205260036040600020015415611bd0577f0ed8cb1ba8161c9828dd61bbaca976d84a455aaa4c036de1fa9c95f9b70375219260609282611bad575b80611b8a575b81611b67575b60405192835260208301526040820152a2005b85600052600d6020526001604060002001611b83838254612ecd565b9055611b54565b85600052600d6020526007604060002001611ba6828254612ecd565b9055611b4e565b85600052600d6020526004604060002001611bc9848254612ecd565b9055611b48565b608460405162461bcd60e51b815260206004820152602e60248201527f4c4e4e6f64654e46543a206e6f6465206d696e696e672072657761726473206e60448201527f6f7420696e697469616c697a65640000000000000000000000000000000000006064820152fd5b346104ee5760206003193601126104ee5760043560005260116020526020604060002054604051908152f35b346104ee5760406003193601126104ee57611c7f612d52565b336001600160a01b03821603611c9b57610a6790600435613c16565b7f6697b2320000000000000000000000000000000000000000000000000000000060005260046000fd5b346104ee5760406003193601126104ee57611cde612d3c565b6001600160a01b0360243591611cf3816136a5565b831015611d1f571660005260066020526040600020906000526020526020604060002054604051908152f35b7fa57d13dc000000000000000000000000000000000000000000000000000000006000521660045260245260446000fd5b346104ee5760406003193601126104ee57610a67600435611d6f612d52565b90611d8b610a5d82600052600a60205260016040600020015490565b613b7c565b346104ee5760206003193601126104ee576001600160a01b03611db1612d3c565b1680151580611dc7576020906040519015158152f35b506000526010602052602060406000205415610dd1565b346104ee5760206003193601126104ee5760043560005260126020526020604060002054604051908152f35b346104ee5760206003193601126104ee576020611437600435600052600a60205260016040600020015490565b346104ee57610a67611e4836612dc6565b91613205565b346104ee5760406003193601126104ee57600435602435611e726107418333613ae7565b611e7e61028e83613ad0565b8015611fb75781600052600c602052611e9f600760406000200154156130b2565b806000526011602052604060002054611f4d5760207fbd7bea7c0d741779d74a9045b57b84b668447c6bc11bec5354125e908de7007d9183600052600c8252600160406000200154611f29575b83600052600c82528060016040600020015583600052600c82526001600760406000200155806000526011825283604060002055604051908152a2005b83600052600c82526001604060002001546000526011825260006040812055611eec565b608460405162461bcd60e51b815260206004820152602260248201527f4c4e4e6f64654e46543a206e70756220616c7265616479206861732061206e6f60448201527f64650000000000000000000000000000000000000000000000000000000000006064820152fd5b608460405162461bcd60e51b8152602060048201526024808201527f4c4e4e6f64654e46543a206f776e6572206e7075622063616e6e6f742062652060448201527f7a65726f000000000000000000000000000000000000000000000000000000006064820152fd5b346104ee5760006003193601126104ee576020600854604051908152f35b346104ee5760206003193601126104ee57604061206161205c612d3c565b612f90565b82519182526020820152f35b346104ee5760406003193601126104ee576004356001600160a01b03612091612d52565b612099613a04565b6120a561028e84613ad0565b1680156121805781600052600c6020526001600160a01b03600660406000200154168181036120d057005b8061215d575b82600052600c6020526006604060002001826001600160a01b031982541617905581600052600f60205260406000209081549260018401809411612147577f0d8abbd377303a8419296ef86e00ecee8d9b68c27bb8b6d1c4a177e139367c70936040935582519182526020820152a2005b634e487b7160e01b600052601160045260246000fd5b80600052600f6020526040600020805490600019820191821161214757556120d6565b608460405162461bcd60e51b815260206004820152602b60248201527f4c4e4e6f64654e46543a206e65772062757965722063616e6e6f74206265207a60448201527f65726f20616464726573730000000000000000000000000000000000000000006064820152fd5b346104ee5760206003193601126104ee57612203612d3c565b6001600160a01b03811690811561291a578160005260106020526040600020546128b0576001600160a01b0360175416156128465761224133612f90565b9050156127dc576008549160018301809311612147576020926040516122678582612e57565b60008152600093828552600286526001600160a01b03604086205416801590811591826127a3575b861590811561278c575b86895260028a5260408920886001600160a01b03198254161790558688847fddf252ad1be2c89b69c2b068fc378daa952ba7f163c4a11628f55a4df523b3ef8c80a4156127165760085486895260098a528060408a205568010000000000000000811015612702578661231582600161232d9401600855613674565b90919060001983549160031b92831b921b1916179055565b156126bf5760085460001981019081116126ab5785885260098952612356604089205491613674565b90549060031b1c61236a8161231584613674565b8852600989526040882055848752600988528660408120556008548015612697576000190161239881613674565b60001982549160031b1b191690556008555b5061266b579085913b612522575b505090916040516123c881612e1e565b83815284810182815260408201858152606083018681526080840185815260a085019186835260c086019333855260e0870195888752898952600c8c526040892097516001600160a01b03166001600160a01b031688546001600160a01b031916178855516001880155516001600160a01b031660028701906001600160a01b031681546001600160a01b031916179055516001600160a01b031660038601906001600160a01b031681546001600160a01b031916179055516004850155516005840155516001600160a01b031660068301906001600160a01b031681546001600160a01b03191617905551906007015582815260108452816040822055338152600f8452604081208054906001820180921161250e575560405192827f1d5ac4c3bd259d0a8dcdb7b26c6134da625e06caef9043c46a162c0c6e9f5fc1339380a48152f35b602483634e487b7160e01b81526011600452fd5b9061255b9160405180938192630a85bd0160e11b8352336004840152886024840152866044840152608060648401526084830190612da1565b038187875af184918161260f575b506125bf5750503d156125b8573d61258081612e7a565b9061258e6040519283612e57565b81523d838583013e5b805193846125b25760248484633250574960e11b8252600452fd5b84925001fd5b6060612597565b7fffffffff00000000000000000000000000000000000000000000000000000000630a85bd0160e11b919492939416036125fc57919083856123b8565b8083633250574960e11b60249352600452fd5b9091508581813d8311612664575b6126278183612e57565b8101031261266057517fffffffff0000000000000000000000000000000000000000000000000000000081168103612660579086612569565b8480fd5b503d61261d565b6024857f73c6ac6e00000000000000000000000000000000000000000000000000000000815280600452fd5b602488634e487b7160e01b81526031600452fd5b602488634e487b7160e01b81526011600452fd5b8086146123aa576126cf836136a5565b60001981019081116126ab57868852600689526040882081895289528560408920558588526007895260408820556123aa565b602489634e487b7160e01b81526041600452fd5b81871461232d57612726826136a5565b86895260078a52604089205490838a5260068b5260408a2091818103612764575b50878a5260078b528960408120558952895287604081205561232d565b818b52828c5260408b2054818c52838d528060408d20558b5260078c5260408b20558b612747565b87895260038a526040892060018154019055612299565b6127c486600052600460205260406000206001600160a01b03198154169055565b8188526003895260408820600019815401905561228f565b608460405162461bcd60e51b815260206004820152602d60248201527f4c4e4e6f64654e46543a20627579657220686173206e6f20617661696c61626c60448201527f6520616c6c6f636174696f6e73000000000000000000000000000000000000006064820152fd5b608460405162461bcd60e51b815260206004820152602260248201527f4c4e4e6f64654e46543a206e6f646553616c6541646472657373206e6f74207360448201527f65740000000000000000000000000000000000000000000000000000000000006064820152fd5b608460405162461bcd60e51b815260206004820152602360248201527f4c4e4e6f64654e46543a206f776e657220616c7265616479206861732061206e60448201527f6f646500000000000000000000000000000000000000000000000000000000006064820152fd5b608460405162461bcd60e51b815260206004820152602360248201527f4c4e4e6f64654e46543a206d696e7420746f20746865207a65726f206164647260448201527f65737300000000000000000000000000000000000000000000000000000000006064820152fd5b346104ee5760406003193601126104ee5761299d612d3c565b6024356129a9816139b4565b33151580612a80575b80612a49575b612a1b5781906001600160a01b0380851691167f8c5be1e5ebec7d5bd14f71427d1e84f3dd0314c0f7b2291e5b200ac8c7c3b925600080a460005260046020526001600160a01b03604060002091166001600160a01b0319825416179055600080f35b7fa9fbf51f000000000000000000000000000000000000000000000000000000006000523360045260246000fd5b506001600160a01b038116600052600560205260406000206001600160a01b03331660005260205260ff60406000205416156129b8565b50336001600160a01b03821614156129b2565b346104ee5760206003193601126104ee576020611498600435612f14565b346104ee5760006003193601126104ee5760405160008054612ad281612eda565b80845290600181169081156112595750600114612af957610c2383610c0f81850382612e57565b60008080527f290decd9548b62a8d60345a988386fc84ba6bc95484008f6362f93160ef3e563939250905b808210612b3c57509091508101602001610c0f6111e9565b919260018160209254838588010152019101909291612b24565b346104ee57612b6436612d68565b90600052600e602052610e566040600020918254612ecd565b346104ee5760206003193601126104ee576001600160a01b03612b9e612d3c565b612ba6613972565b168015612bc3576001600160a01b03196017541617601755600080f35b606460405162461bcd60e51b815260206004820152601760248201527f4c4e4e6f64654e46543a207a65726f20616464726573730000000000000000006044820152fd5b346104ee5760206003193601126104ee57600435907fffffffff0000000000000000000000000000000000000000000000000000000082168092036104ee57817f7965db0b0000000000000000000000000000000000000000000000000000000060209314908115612c7b575b5015158152f35b7f780e9d6300000000000000000000000000000000000000000000000000000000811491508115612cae575b5083612c74565b7f80ac58cd00000000000000000000000000000000000000000000000000000000811491508115612d12575b8115612ce8575b5083612ca7565b7f01ffc9a70000000000000000000000000000000000000000000000000000000091501483612ce1565b7f5b5e139f0000000000000000000000000000000000000000000000000000000081149150612cda565b600435906001600160a01b03821682036104ee57565b602435906001600160a01b03821682036104ee57565b60031960409101126104ee576004359060243590565b60005b838110612d915750506000910152565b8181015183820152602001612d81565b90601f19601f602093612dbf81518092818752878088019101612d7e565b0116010190565b60031960609101126104ee576004356001600160a01b03811681036104ee57906024356001600160a01b03811681036104ee579060443590565b60031960809101126104ee5760043590602435906044359060643590565b610100810190811067ffffffffffffffff8211176117b857604052565b6040810190811067ffffffffffffffff8211176117b857604052565b90601f601f19910116810190811067ffffffffffffffff8211176117b857604052565b67ffffffffffffffff81116117b857601f01601f191660200190565b929192612ea282612e7a565b91612eb06040519384612e57565b8294818452818301116104ee578281602093846000960137010152565b9190820180921161214757565b90600182811c92168015612f0a575b6020831014612ef457565b634e487b7160e01b600052602260045260246000fd5b91607f1691612ee9565b612f1d816139b4565b5060005260046020526001600160a01b036040600020541690565b15612f3f57565b606460405162461bcd60e51b815260206004820152601e60248201527f4c4e4e6f64654e46543a206e6f646520646f6573206e6f7420657869737400006044820152fd5b9190820391821161214757565b906001600160a01b0391604083601754169160248251809681937f6f77926b00000000000000000000000000000000000000000000000000000000835216948560048301525afa92831561303557600093613001575b50600052600f602052612ffe60406000205483612f83565b90565b9092506040813d60401161302d575b8161301d60409383612e57565b810103126104ee57519138612fe6565b3d9150613010565b6040513d6000823e3d90fd5b1561304857565b608460405162461bcd60e51b815260206004820152602b60248201527f4c4e4e6f64654e46543a2063616c6c6572206973206e6f74206f776e6572206e60448201527f6f7220617070726f7665640000000000000000000000000000000000000000006064820152fd5b156130b957565b608460405162461bcd60e51b815260206004820152602160248201527f4c4e4e6f64654e46543a206e6f646520616c726561647920616374697661746560448201527f64000000000000000000000000000000000000000000000000000000000000006064820152fd5b1561312a57565b608460405162461bcd60e51b815260206004820152602760248201527f4c4e4e6f64654e46543a207472616e7366657220746f20746865207a65726f2060448201527f61646472657373000000000000000000000000000000000000000000000000006064820152fd5b1561319b57565b608460405162461bcd60e51b815260206004820152602760248201527f4c4e4e6f64654e46543a20726563697069656e7420616c72656164792068617360448201527f2061206e6f6465000000000000000000000000000000000000000000000000006064820152fd5b916001600160a01b0382169182159384159161322083613123565b84600052601060205261323860406000205415613194565b83600052600c602052600160406000200154956135b05760009084825260026020526001600160a01b0360408320541693331515806134e7575b5084159081156134ad575b613495575b858352600260205260408320876001600160a01b03198254161790558587867fddf252ad1be2c89b69c2b068fc378daa952ba7f163c4a11628f55a4df523b3ef8680a4156134185760085485835260096020528060408420556801000000000000000081101561340457856123158260016133009401600855613674565b8584036133a6575b50506001600160a01b031690818103613371575060005260106020526000604081205581600052601060205280604060002055600052600c6020526040600020906001600160a01b0319825416179055806133605750565b600052601160205260006040812055565b92507f64283d7b0000000000000000000000000000000000000000000000000000000060005260045260245260445260646000fd5b6133af906136a5565b9060001982019182116133f05790604082876001600160a01b0395945260066020528181208382526020528682822055868152600760205220559038613308565b80634e487b7160e01b602492526011600452fd5b602483634e487b7160e01b81526041600452fd5b83861461330057613428846136a5565b85835260076020526040832054908584526006602052604084209181810361346a575b5086845260076020528360408120558352602052816040812055613300565b818552826020526040852054818652836020528060408720558552600760205260408520553861344b565b86835260036020526040832060018154019055613282565b6134ce87600052600460205260406000206001600160a01b03198154169055565b858452600360205260408420600019815401905561327d565b80613559575b156134f85738613272565b85838661352a576024917f7e273289000000000000000000000000000000000000000000000000000000008252600452fd5b6044917f177e802f00000000000000000000000000000000000000000000000000000000825233600452602452fd5b503385148015613587575b806134ed57508583526004602052336001600160a01b03604085205416146134ed565b508483526005602052604083206001600160a01b033316845260205260ff604084205416613564565b633250574960e11b600052600060045260246000fd5b156135cd57565b608460405162461bcd60e51b815260206004820152602860248201527f4c4e4e6f64654e46543a20616d6f756e74206d7573742062652067726561746560448201527f72207468616e20300000000000000000000000000000000000000000000000006064820152fd5b6040519061364482612e1e565b600060e0838281528260208201528260408201528260608201528260808201528260a08201528260c08201520152565b60085481101561368f57600860005260206000200190600090565b634e487b7160e01b600052603260045260246000fd5b6001600160a01b031680156136c557600052600360205260406000205490565b7f89c62b6400000000000000000000000000000000000000000000000000000000600052600060045260246000fd5b156136fb57565b608460405162461bcd60e51b815260206004820152602560248201527f4c4e4e6f64654e46543a206e657720616464726573732063616e6e6f7420626560448201527f207a65726f0000000000000000000000000000000000000000000000000000006064820152fd5b929190926001600160a01b0384169261377f841515613123565b83600052601060205261379760406000205415613194565b82600052600c602052600160406000200154946137b5848285613205565b3b613809575b506001600160a01b031660005260106020526000604081205581600052601060205280604060002055600052600c6020526040600020906001600160a01b0319825416179055806133605750565b6020613850916040979695975180938192630a85bd0160e11b83523360048401526001600160a01b0387166024840152876044840152608060648401526084830190612da1565b038160008a5af18091600091613910575b50906138ba57853d156138b3573d61387881612e7a565b906138866040519283612e57565b81523d6000602083013e5b805190816138ae5782633250574960e11b60005260045260246000fd5b602001fd5b6060613891565b7fffffffff00000000000000000000000000000000000000000000000000000000630a85bd0160e11b919694959616036138fb576001600160a01b036137bb565b82633250574960e11b60005260045260246000fd5b6020813d60201161396a575b8161392960209383612e57565b810103126139665751907fffffffff0000000000000000000000000000000000000000000000000000000082168203613963575038613861565b80fd5b5080fd5b3d915061391c565b6001600160a01b03600b5416330361398657565b7f118cdaa7000000000000000000000000000000000000000000000000000000006000523360045260246000fd5b8060005260026020526001600160a01b03604060002054169081156139d7575090565b7f7e2732890000000000000000000000000000000000000000000000000000000060005260045260246000fd5b3360009081527f13da86008ba1c6922daee3e07db95305ef49ebced9f5467a0b8613fcc6b343e3602052604090205460ff1615613a3d57565b7fe2517d3f0000000000000000000000000000000000000000000000000000000060005233600452600060245260446000fd5b80600052600a60205260406000206001600160a01b03331660005260205260ff6040600020541615613a9f5750565b7fe2517d3f000000000000000000000000000000000000000000000000000000006000523360045260245260446000fd5b8015159081613add575090565b9050600854101590565b90613af181613ad0565b9182613afc57505090565b8192506001600160a01b03613b1181936139b4565b91169182911614918215613b60575b8215613b2b57505090565b6001600160a01b03919250613b3f906139b4565b16600052600560205260406000209060005260205260ff6040600020541690565b9150806001600160a01b03613b7484612f14565b161491613b20565b80600052600a60205260406000206001600160a01b03831660005260205260ff6040600020541615600014613c0f5780600052600a60205260406000206001600160a01b0383166000526020526040600020600160ff198254161790556001600160a01b03339216907f2f8788117e7eff1d82e926ec794901d17c78024a50270940304540a733656f0d600080a4600190565b5050600090565b80600052600a60205260406000206001600160a01b03831660005260205260ff60406000205416600014613c0f5780600052600a60205260406000206001600160a01b038316600052602052604060002060ff1981541690556001600160a01b03339216907ff6391f5c32d9c69d2a47ea670b442974b53935d1edc7fd64eb21e047a839171b600080a460019056fea26469706673582212209eba32d6d08b96f6b60548263d196fbf549ad5635fe777a846a3c91ee8da47c764736f6c634300081b00332f8788117e7eff1d82e926ec794901d17c78024a50270940304540a733656f0d9c8843fca7ab1747e9c69e3d39849ba2c8aedc9d17b2ba460751d1b018c702ff",
  "linkReferences": {},
  "deployedLinkReferences": {}
}